

Microchip Technology PIC18 LITE Macro Assembler V1.37 build -260352376 
                                                                                               Thu Nov 03 16:32:01 2016

Microchip Technology Omniscient Code Generator v1.37 (Free mode) build 201603110536
     1                           	processor	18F4550
     2                           	fnconf	rparam,??,?,0
     3                           	opt	pw 120
     4                           	opt	lm
     5                           	psect	mediumconst,global,reloc=2,class=MEDIUMCONST,delta=1
     6                           	psect	cinit,global,reloc=2,class=CODE,delta=1
     7                           	psect	bssCOMRAM,global,class=COMRAM,space=1,delta=1
     8                           	psect	cstackCOMRAM,global,class=COMRAM,space=1,delta=1
     9                           	psect	text0,global,reloc=2,class=CODE,delta=1
    10                           	psect	text1,global,reloc=2,class=CODE,delta=1
    11                           	psect	text2,global,reloc=2,class=CODE,delta=1
    12                           	psect	text3,global,reloc=2,class=CODE,delta=1
    13                           	psect	text4,global,reloc=2,class=CODE,delta=1
    14                           	psect	text5,global,reloc=2,class=CODE,delta=1
    15                           	psect	text6,global,reloc=2,class=CODE,delta=1
    16                           	psect	text7,global,reloc=2,class=CODE,delta=1
    17                           	psect	text8,global,reloc=2,class=CODE,delta=1
    18                           	psect	text9,global,reloc=2,class=CODE,delta=1
    19                           	psect	text10,global,reloc=2,class=CODE,delta=1
    20                           	psect	text11,global,reloc=2,class=CODE,delta=1
    21                           	psect	text12,global,reloc=2,class=CODE,delta=1
    22                           	psect	intsave_regs,global,class=BIGRAM,space=1,delta=1
    23                           	psect	rparam,global,class=COMRAM,space=1,delta=1
    24  0000                     
    25                           	psect	mediumconst
    26  007730                     __pmediumconst:
    27                           	opt stack 0
    28  007730  00                 	db	0
    29  007731                     _FONT_1:
    30                           	opt stack 0
    31  007731  00                 	db	0
    32  007732  00                 	db	0
    33  007733  00                 	db	0
    34  007734  00                 	db	0
    35  007735  00                 	db	0
    36  007736  00                 	db	0
    37  007737  00                 	db	0
    38  007738  5F                 	db	95
    39  007739  00                 	db	0
    40  00773A  00                 	db	0
    41  00773B  00                 	db	0
    42  00773C  07                 	db	7
    43  00773D  00                 	db	0
    44  00773E  07                 	db	7
    45  00773F  00                 	db	0
    46  007740  14                 	db	20
    47  007741  7F                 	db	127
    48  007742  14                 	db	20
    49  007743  7F                 	db	127
    50  007744  14                 	db	20
    51  007745  24                 	db	36
    52  007746  2A                 	db	42
    53  007747  7F                 	db	127
    54  007748  2A                 	db	42
    55  007749  12                 	db	18
    56  00774A  23                 	db	35
    57  00774B  13                 	db	19
    58  00774C  08                 	db	8
    59  00774D  64                 	db	100
    60  00774E  62                 	db	98
    61  00774F  36                 	db	54
    62  007750  49                 	db	73
    63  007751  55                 	db	85
    64  007752  22                 	db	34
    65  007753  50                 	db	80
    66  007754  00                 	db	0
    67  007755  05                 	db	5
    68  007756  03                 	db	3
    69  007757  00                 	db	0
    70  007758  00                 	db	0
    71  007759  00                 	db	0
    72  00775A  1C                 	db	28
    73  00775B  22                 	db	34
    74  00775C  41                 	db	65
    75  00775D  00                 	db	0
    76  00775E  00                 	db	0
    77  00775F  41                 	db	65
    78  007760  22                 	db	34
    79  007761  1C                 	db	28
    80  007762  00                 	db	0
    81  007763  14                 	db	20
    82  007764  08                 	db	8
    83  007765  3E                 	db	62
    84  007766  08                 	db	8
    85  007767  14                 	db	20
    86  007768  08                 	db	8
    87  007769  08                 	db	8
    88  00776A  3E                 	db	62
    89  00776B  08                 	db	8
    90  00776C  08                 	db	8
    91  00776D  00                 	db	0
    92  00776E  50                 	db	80
    93  00776F  30                 	db	48
    94  007770  00                 	db	0
    95  007771  00                 	db	0
    96  007772  08                 	db	8
    97  007773  08                 	db	8
    98  007774  08                 	db	8
    99  007775  08                 	db	8
   100  007776  08                 	db	8
   101  007777  00                 	db	0
   102  007778  60                 	db	96
   103  007779  60                 	db	96
   104  00777A  00                 	db	0
   105  00777B  00                 	db	0
   106  00777C  20                 	db	32
   107  00777D  10                 	db	16
   108  00777E  08                 	db	8
   109  00777F  04                 	db	4
   110  007780  02                 	db	2
   111  007781  3E                 	db	62
   112  007782  51                 	db	81
   113  007783  49                 	db	73
   114  007784  45                 	db	69
   115  007785  3E                 	db	62
   116  007786  00                 	db	0
   117  007787  42                 	db	66
   118  007788  7F                 	db	127
   119  007789  40                 	db	64
   120  00778A  00                 	db	0
   121  00778B  42                 	db	66
   122  00778C  61                 	db	97
   123  00778D  51                 	db	81
   124  00778E  49                 	db	73
   125  00778F  46                 	db	70
   126  007790  21                 	db	33
   127  007791  41                 	db	65
   128  007792  45                 	db	69
   129  007793  4B                 	db	75
   130  007794  31                 	db	49
   131  007795  18                 	db	24
   132  007796  14                 	db	20
   133  007797  12                 	db	18
   134  007798  7F                 	db	127
   135  007799  10                 	db	16
   136  00779A  27                 	db	39
   137  00779B  45                 	db	69
   138  00779C  45                 	db	69
   139  00779D  45                 	db	69
   140  00779E  39                 	db	57
   141  00779F  3C                 	db	60
   142  0077A0  4A                 	db	74
   143  0077A1  49                 	db	73
   144  0077A2  49                 	db	73
   145  0077A3  30                 	db	48
   146  0077A4  01                 	db	1
   147  0077A5  71                 	db	113
   148  0077A6  09                 	db	9
   149  0077A7  05                 	db	5
   150  0077A8  03                 	db	3
   151  0077A9  36                 	db	54
   152  0077AA  49                 	db	73
   153  0077AB  49                 	db	73
   154  0077AC  49                 	db	73
   155  0077AD  36                 	db	54
   156  0077AE  06                 	db	6
   157  0077AF  49                 	db	73
   158  0077B0  49                 	db	73
   159  0077B1  29                 	db	41
   160  0077B2  1E                 	db	30
   161  0077B3  00                 	db	0
   162  0077B4  36                 	db	54
   163  0077B5  36                 	db	54
   164  0077B6  00                 	db	0
   165  0077B7  00                 	db	0
   166  0077B8  00                 	db	0
   167  0077B9  56                 	db	86
   168  0077BA  36                 	db	54
   169  0077BB  00                 	db	0
   170  0077BC  00                 	db	0
   171  0077BD  08                 	db	8
   172  0077BE  14                 	db	20
   173  0077BF  22                 	db	34
   174  0077C0  41                 	db	65
   175  0077C1  00                 	db	0
   176  0077C2  14                 	db	20
   177  0077C3  14                 	db	20
   178  0077C4  14                 	db	20
   179  0077C5  14                 	db	20
   180  0077C6  14                 	db	20
   181  0077C7  00                 	db	0
   182  0077C8  41                 	db	65
   183  0077C9  22                 	db	34
   184  0077CA  14                 	db	20
   185  0077CB  08                 	db	8
   186  0077CC  02                 	db	2
   187  0077CD  01                 	db	1
   188  0077CE  51                 	db	81
   189  0077CF  09                 	db	9
   190  0077D0  06                 	db	6
   191  0077D1  32                 	db	50
   192  0077D2  49                 	db	73
   193  0077D3  79                 	db	121
   194  0077D4  41                 	db	65
   195  0077D5  3E                 	db	62
   196  0077D6  7E                 	db	126
   197  0077D7  11                 	db	17
   198  0077D8  11                 	db	17
   199  0077D9  11                 	db	17
   200  0077DA  7E                 	db	126
   201  0077DB  7F                 	db	127
   202  0077DC  49                 	db	73
   203  0077DD  49                 	db	73
   204  0077DE  49                 	db	73
   205  0077DF  36                 	db	54
   206  0077E0  3E                 	db	62
   207  0077E1  41                 	db	65
   208  0077E2  41                 	db	65
   209  0077E3  41                 	db	65
   210  0077E4  22                 	db	34
   211  0077E5  7F                 	db	127
   212  0077E6  41                 	db	65
   213  0077E7  41                 	db	65
   214  0077E8  22                 	db	34
   215  0077E9  1C                 	db	28
   216  0077EA  7F                 	db	127
   217  0077EB  49                 	db	73
   218  0077EC  49                 	db	73
   219  0077ED  49                 	db	73
   220  0077EE  41                 	db	65
   221  0077EF  7F                 	db	127
   222  0077F0  09                 	db	9
   223  0077F1  09                 	db	9
   224  0077F2  09                 	db	9
   225  0077F3  01                 	db	1
   226  0077F4  3E                 	db	62
   227  0077F5  41                 	db	65
   228  0077F6  49                 	db	73
   229  0077F7  49                 	db	73
   230  0077F8  7A                 	db	122
   231  0077F9  7F                 	db	127
   232  0077FA  08                 	db	8
   233  0077FB  08                 	db	8
   234  0077FC  08                 	db	8
   235  0077FD  7F                 	db	127
   236  0077FE  00                 	db	0
   237  0077FF  41                 	db	65
   238  007800  7F                 	db	127
   239  007801  41                 	db	65
   240  007802  00                 	db	0
   241  007803  20                 	db	32
   242  007804  40                 	db	64
   243  007805  41                 	db	65
   244  007806  3F                 	db	63
   245  007807  01                 	db	1
   246  007808  7F                 	db	127
   247  007809  08                 	db	8
   248  00780A  14                 	db	20
   249  00780B  22                 	db	34
   250  00780C  41                 	db	65
   251  00780D  7F                 	db	127
   252  00780E  40                 	db	64
   253  00780F  40                 	db	64
   254  007810  40                 	db	64
   255  007811  40                 	db	64
   256  007812  7F                 	db	127
   257  007813  02                 	db	2
   258  007814  0C                 	db	12
   259  007815  02                 	db	2
   260  007816  7F                 	db	127
   261  007817  7F                 	db	127
   262  007818  04                 	db	4
   263  007819  08                 	db	8
   264  00781A  10                 	db	16
   265  00781B  7F                 	db	127
   266  00781C  3E                 	db	62
   267  00781D  41                 	db	65
   268  00781E  41                 	db	65
   269  00781F  41                 	db	65
   270  007820  3E                 	db	62
   271  007821  7F                 	db	127
   272  007822  09                 	db	9
   273  007823  09                 	db	9
   274  007824  09                 	db	9
   275  007825  06                 	db	6
   276  007826  3E                 	db	62
   277  007827  41                 	db	65
   278  007828  51                 	db	81
   279  007829  21                 	db	33
   280  00782A  5E                 	db	94
   281  00782B  7F                 	db	127
   282  00782C  09                 	db	9
   283  00782D  19                 	db	25
   284  00782E  29                 	db	41
   285  00782F  46                 	db	70
   286  007830  46                 	db	70
   287  007831  49                 	db	73
   288  007832  49                 	db	73
   289  007833  49                 	db	73
   290  007834  31                 	db	49
   291  007835  01                 	db	1
   292  007836  01                 	db	1
   293  007837  7F                 	db	127
   294  007838  01                 	db	1
   295  007839  01                 	db	1
   296  00783A  3F                 	db	63
   297  00783B  40                 	db	64
   298  00783C  40                 	db	64
   299  00783D  40                 	db	64
   300  00783E  3F                 	db	63
   301  00783F  1F                 	db	31
   302  007840  20                 	db	32
   303  007841  40                 	db	64
   304  007842  20                 	db	32
   305  007843  1F                 	db	31
   306  007844  3F                 	db	63
   307  007845  40                 	db	64
   308  007846  38                 	db	56
   309  007847  40                 	db	64
   310  007848  3F                 	db	63
   311  007849  63                 	db	99
   312  00784A  14                 	db	20
   313  00784B  08                 	db	8
   314  00784C  14                 	db	20
   315  00784D  63                 	db	99
   316  00784E  07                 	db	7
   317  00784F  08                 	db	8
   318  007850  70                 	db	112
   319  007851  08                 	db	8
   320  007852  07                 	db	7
   321  007853  61                 	db	97
   322  007854  51                 	db	81
   323  007855  49                 	db	73
   324  007856  45                 	db	69
   325  007857  43                 	db	67
   326  007858  00                 	db	0
   327  007859  7F                 	db	127
   328  00785A  41                 	db	65
   329  00785B  41                 	db	65
   330  00785C  00                 	db	0
   331  00785D  02                 	db	2
   332  00785E  04                 	db	4
   333  00785F  08                 	db	8
   334  007860  10                 	db	16
   335  007861  20                 	db	32
   336  007862  00                 	db	0
   337  007863  41                 	db	65
   338  007864  41                 	db	65
   339  007865  7F                 	db	127
   340  007866  00                 	db	0
   341  007867  04                 	db	4
   342  007868  02                 	db	2
   343  007869  01                 	db	1
   344  00786A  02                 	db	2
   345  00786B  04                 	db	4
   346  00786C  40                 	db	64
   347  00786D  40                 	db	64
   348  00786E  40                 	db	64
   349  00786F  40                 	db	64
   350  007870  40                 	db	64
   351  007871  00                 	db	0
   352  007872  01                 	db	1
   353  007873  02                 	db	2
   354  007874  04                 	db	4
   355  007875  00                 	db	0
   356  007876  20                 	db	32
   357  007877  54                 	db	84
   358  007878  54                 	db	84
   359  007879  54                 	db	84
   360  00787A  78                 	db	120
   361  00787B  7F                 	db	127
   362  00787C  48                 	db	72
   363  00787D  44                 	db	68
   364  00787E  44                 	db	68
   365  00787F  38                 	db	56
   366  007880  38                 	db	56
   367  007881  44                 	db	68
   368  007882  44                 	db	68
   369  007883  44                 	db	68
   370  007884  20                 	db	32
   371  007885  38                 	db	56
   372  007886  44                 	db	68
   373  007887  44                 	db	68
   374  007888  48                 	db	72
   375  007889  7F                 	db	127
   376  00788A  38                 	db	56
   377  00788B  54                 	db	84
   378  00788C  54                 	db	84
   379  00788D  54                 	db	84
   380  00788E  18                 	db	24
   381  00788F  08                 	db	8
   382  007890  7E                 	db	126
   383  007891  09                 	db	9
   384  007892  01                 	db	1
   385  007893  02                 	db	2
   386  007894  0C                 	db	12
   387  007895  52                 	db	82
   388  007896  52                 	db	82
   389  007897  52                 	db	82
   390  007898  3E                 	db	62
   391  007899  7F                 	db	127
   392  00789A  08                 	db	8
   393  00789B  04                 	db	4
   394  00789C  04                 	db	4
   395  00789D  78                 	db	120
   396  00789E  00                 	db	0
   397  00789F  44                 	db	68
   398  0078A0  7D                 	db	125
   399  0078A1  40                 	db	64
   400  0078A2  00                 	db	0
   401  0078A3  20                 	db	32
   402  0078A4  40                 	db	64
   403  0078A5  44                 	db	68
   404  0078A6  3D                 	db	61
   405  0078A7  00                 	db	0
   406  0078A8  7F                 	db	127
   407  0078A9  10                 	db	16
   408  0078AA  28                 	db	40
   409  0078AB  44                 	db	68
   410  0078AC  00                 	db	0
   411  0078AD  00                 	db	0
   412  0078AE  41                 	db	65
   413  0078AF  7F                 	db	127
   414  0078B0  40                 	db	64
   415  0078B1  00                 	db	0
   416  0078B2  7C                 	db	124
   417  0078B3  04                 	db	4
   418  0078B4  18                 	db	24
   419  0078B5  04                 	db	4
   420  0078B6  78                 	db	120
   421  0078B7  7C                 	db	124
   422  0078B8  08                 	db	8
   423  0078B9  04                 	db	4
   424  0078BA  04                 	db	4
   425  0078BB  78                 	db	120
   426  0078BC  38                 	db	56
   427  0078BD  44                 	db	68
   428  0078BE  44                 	db	68
   429  0078BF  44                 	db	68
   430  0078C0  38                 	db	56
   431  0078C1  7C                 	db	124
   432  0078C2  14                 	db	20
   433  0078C3  14                 	db	20
   434  0078C4  14                 	db	20
   435  0078C5  08                 	db	8
   436  0078C6  08                 	db	8
   437  0078C7  14                 	db	20
   438  0078C8  14                 	db	20
   439  0078C9  18                 	db	24
   440  0078CA  7C                 	db	124
   441  0078CB  7C                 	db	124
   442  0078CC  08                 	db	8
   443  0078CD  04                 	db	4
   444  0078CE  04                 	db	4
   445  0078CF  08                 	db	8
   446  0078D0  48                 	db	72
   447  0078D1  54                 	db	84
   448  0078D2  54                 	db	84
   449  0078D3  54                 	db	84
   450  0078D4  20                 	db	32
   451  0078D5  04                 	db	4
   452  0078D6  3F                 	db	63
   453  0078D7  44                 	db	68
   454  0078D8  40                 	db	64
   455  0078D9  20                 	db	32
   456  0078DA  3C                 	db	60
   457  0078DB  40                 	db	64
   458  0078DC  40                 	db	64
   459  0078DD  20                 	db	32
   460  0078DE  7C                 	db	124
   461  0078DF  1C                 	db	28
   462  0078E0  20                 	db	32
   463  0078E1  40                 	db	64
   464  0078E2  20                 	db	32
   465  0078E3  1C                 	db	28
   466  0078E4  3C                 	db	60
   467  0078E5  40                 	db	64
   468  0078E6  30                 	db	48
   469  0078E7  40                 	db	64
   470  0078E8  3C                 	db	60
   471  0078E9  44                 	db	68
   472  0078EA  28                 	db	40
   473  0078EB  10                 	db	16
   474  0078EC  28                 	db	40
   475  0078ED  44                 	db	68
   476  0078EE  0C                 	db	12
   477  0078EF  50                 	db	80
   478  0078F0  50                 	db	80
   479  0078F1  50                 	db	80
   480  0078F2  3C                 	db	60
   481  0078F3  44                 	db	68
   482  0078F4  64                 	db	100
   483  0078F5  54                 	db	84
   484  0078F6  4C                 	db	76
   485  0078F7  44                 	db	68
   486  0078F8  00                 	db	0
   487  0078F9  08                 	db	8
   488  0078FA  36                 	db	54
   489  0078FB  41                 	db	65
   490  0078FC  00                 	db	0
   491  0078FD  00                 	db	0
   492  0078FE  00                 	db	0
   493  0078FF  7F                 	db	127
   494  007900  00                 	db	0
   495  007901  00                 	db	0
   496  007902  00                 	db	0
   497  007903  41                 	db	65
   498  007904  36                 	db	54
   499  007905  08                 	db	8
   500  007906  00                 	db	0
   501  007907  10                 	db	16
   502  007908  08                 	db	8
   503  007909  08                 	db	8
   504  00790A  10                 	db	16
   505  00790B  08                 	db	8
   506  00790C  78                 	db	120
   507  00790D  46                 	db	70
   508  00790E  41                 	db	65
   509  00790F  46                 	db	70
   510  007910  78                 	db	120
   511  007911                     __end_of_FONT_1:
   512                           	opt stack 0
   513  007911                     _FoodPIX:
   514                           	opt stack 0
   515  007911  C0                 	db	192
   516  007912  18                 	db	24
   517  007913  C2                 	db	194
   518  007914  DA                 	db	218
   519  007915  18                 	db	24
   520  007916  86                 	db	134
   521  007917  B6                 	db	182
   522  007918  31                 	db	49
   523  007919  00                 	db	0
   524  00791A  00                 	db	0
   525  00791B  1C                 	db	28
   526  00791C  30                 	db	48
   527  00791D  21                 	db	33
   528  00791E  59                 	db	89
   529  00791F  3B                 	db	59
   530  007920  F6                 	db	246
   531  007921  E8                 	db	232
   532  007922  60                 	db	96
   533  007923  00                 	db	0
   534  007924  00                 	db	0
   535  007925  78                 	db	120
   536  007926  B2                 	db	178
   537  007927  FD                 	db	253
   538  007928  F7                 	db	247
   539  007929  7F                 	db	127
   540  00792A  7F                 	db	127
   541  00792B  7E                 	db	126
   542  00792C  3D                 	db	61
   543  00792D  00                 	db	0
   544  00792E  00                 	db	0
   545  00792F  40                 	db	64
   546  007930  C0                 	db	192
   547  007931  E0                 	db	224
   548  007932  D0                 	db	208
   549  007933  E9                 	db	233
   550  007934  7E                 	db	126
   551  007935  3C                 	db	60
   552  007936  00                 	db	0
   553  007937  00                 	db	0
   554  007938  00                 	db	0
   555  007939  32                 	db	50
   556  00793A  79                 	db	121
   557  00793B  7B                 	db	123
   558  00793C  FE                 	db	254
   559  00793D  7B                 	db	123
   560  00793E  79                 	db	121
   561  00793F  33                 	db	51
   562  007940  02                 	db	2
   563  007941  00                 	db	0
   564  007942  00                 	db	0
   565  007943  3E                 	db	62
   566  007944  21                 	db	33
   567  007945  FF                 	db	255
   568  007946  FF                 	db	255
   569  007947  21                 	db	33
   570  007948  3E                 	db	62
   571  007949  00                 	db	0
   572  00794A  00                 	db	0
   573  00794B  00                 	db	0
   574  00794C  00                 	db	0
   575  00794D  3C                 	db	60
   576  00794E  66                 	db	102
   577  00794F  A7                 	db	167
   578  007950  FD                 	db	253
   579  007951  9F                 	db	159
   580  007952  93                 	db	147
   581  007953  72                 	db	114
   582  007954  3C                 	db	60
   583  007955  00                 	db	0
   584  007956  00                 	db	0
   585  007957  0C                 	db	12
   586  007958  0E                 	db	14
   587  007959  CF                 	db	207
   588  00795A  EF                 	db	239
   589  00795B  EF                 	db	239
   590  00795C  6F                 	db	111
   591  00795D  0E                 	db	14
   592  00795E  0C                 	db	12
   593  00795F  00                 	db	0
   594  007960  00                 	db	0
   595  007961  70                 	db	112
   596  007962  E8                 	db	232
   597  007963  E8                 	db	232
   598  007964  F4                 	db	244
   599  007965  7B                 	db	123
   600  007966  7E                 	db	126
   601  007967  3E                 	db	62
   602  007968  0B                 	db	11
   603  007969  00                 	db	0
   604  00796A  00                 	db	0
   605  00796B  FE                 	db	254
   606  00796C  49                 	db	73
   607  00796D  6D                 	db	109
   608  00796E  FF                 	db	255
   609  00796F  49                 	db	73
   610  007970  6D                 	db	109
   611  007971  FF                 	db	255
   612  007972  48                 	db	72
   613  007973  00                 	db	0
   614  007974  00                 	db	0
   615  007975  70                 	db	112
   616  007976  F4                 	db	244
   617  007977  F4                 	db	244
   618  007978  E5                 	db	229
   619  007979  ED                 	db	237
   620  00797A  F9                 	db	249
   621  00797B  7B                 	db	123
   622  00797C  3E                 	db	62
   623  00797D  00                 	db	0
   624  00797E  00                 	db	0
   625  00797F  80                 	db	128
   626  007980  E0                 	db	224
   627  007981  F3                 	db	243
   628  007982  F3                 	db	243
   629  007983  7E                 	db	126
   630  007984  04                 	db	4
   631  007985  1F                 	db	31
   632  007986  1B                 	db	27
   633  007987  00                 	db	0
   634  007988  00                 	db	0
   635  007989  3C                 	db	60
   636  00798A  A6                 	db	166
   637  00798B  66                 	db	102
   638  00798C  3C                 	db	60
   639  00798D  3C                 	db	60
   640  00798E  66                 	db	102
   641  00798F  A6                 	db	166
   642  007990  3C                 	db	60
   643  007991  00                 	db	0
   644  007992  00                 	db	0
   645  007993  3E                 	db	62
   646  007994  FF                 	db	255
   647  007995  FD                 	db	253
   648  007996  22                 	db	34
   649  007997  3E                 	db	62
   650  007998  FF                 	db	255
   651  007999  F9                 	db	249
   652  00799A  3E                 	db	62
   653  00799B  00                 	db	0
   654  00799C  00                 	db	0
   655  00799D  00                 	db	0
   656  00799E  4E                 	db	78
   657  00799F  E7                 	db	231
   658  0079A0  E7                 	db	231
   659  0079A1  E7                 	db	231
   660  0079A2  E7                 	db	231
   661  0079A3  72                 	db	114
   662  0079A4  00                 	db	0
   663  0079A5  00                 	db	0
   664  0079A6  00                 	db	0
   665  0079A7  7E                 	db	126
   666  0079A8  F1                 	db	241
   667  0079A9  E4                 	db	228
   668  0079AA  EE                 	db	238
   669  0079AB  EA                 	db	234
   670  0079AC  EA                 	db	234
   671  0079AD  F3                 	db	243
   672  0079AE  7E                 	db	126
   673  0079AF  00                 	db	0
   674  0079B0  00                 	db	0
   675  0079B1  60                 	db	96
   676  0079B2  F0                 	db	240
   677  0079B3  DC                 	db	220
   678  0079B4  62                 	db	98
   679  0079B5  11                 	db	17
   680  0079B6  7F                 	db	127
   681  0079B7  69                 	db	105
   682  0079B8  30                 	db	48
   683  0079B9  00                 	db	0
   684  0079BA  00                 	db	0
   685  0079BB  3C                 	db	60
   686  0079BC  72                 	db	114
   687  0079BD  FA                 	db	250
   688  0079BE  FE                 	db	254
   689  0079BF  FE                 	db	254
   690  0079C0  F7                 	db	247
   691  0079C1  7E                 	db	126
   692  0079C2  3C                 	db	60
   693  0079C3  00                 	db	0
   694  0079C4  00                 	db	0
   695  0079C5  BE                 	db	190
   696  0079C6  FE                 	db	254
   697  0079C7  FE                 	db	254
   698  0079C8  FE                 	db	254
   699  0079C9  FE                 	db	254
   700  0079CA  BE                 	db	190
   701  0079CB  14                 	db	20
   702  0079CC  0C                 	db	12
   703  0079CD  00                 	db	0
   704  0079CE  00                 	db	0
   705  0079CF  58                 	db	88
   706  0079D0  D8                 	db	216
   707  0079D1  D8                 	db	216
   708  0079D2  D8                 	db	216
   709  0079D3  D8                 	db	216
   710  0079D4  ED                 	db	237
   711  0079D5  73                 	db	115
   712  0079D6  3E                 	db	62
   713  0079D7  00                 	db	0
   714  0079D8  00                 	db	0
   715  0079D9  00                 	db	0
   716  0079DA  70                 	db	112
   717  0079DB  CC                 	db	204
   718  0079DC  F2                 	db	242
   719  0079DD  FF                 	db	255
   720  0079DE  FD                 	db	253
   721  0079DF  73                 	db	115
   722  0079E0  02                 	db	2
   723  0079E1  00                 	db	0
   724  0079E2  00                 	db	0
   725  0079E3  00                 	db	0
   726  0079E4  CE                 	db	206
   727  0079E5  9F                 	db	159
   728  0079E6  9A                 	db	154
   729  0079E7  9F                 	db	159
   730  0079E8  9F                 	db	159
   731  0079E9  9A                 	db	154
   732  0079EA  9F                 	db	159
   733  0079EB  CE                 	db	206
   734  0079EC  00                 	db	0
   735  0079ED  00                 	db	0
   736  0079EE  0E                 	db	14
   737  0079EF  1D                 	db	29
   738  0079F0  3F                 	db	63
   739  0079F1  3F                 	db	63
   740  0079F2  3E                 	db	62
   741  0079F3  3C                 	db	60
   742  0079F4  40                 	db	64
   743  0079F5  80                 	db	128
   744  0079F6  00                 	db	0
   745  0079F7  19                 	db	25
   746  0079F8  A6                 	db	166
   747  0079F9  C0                 	db	192
   748  0079FA  C0                 	db	192
   749  0079FB  A7                 	db	167
   750  0079FC  19                 	db	25
   751  0079FD  06                 	db	6
   752  0079FE  00                 	db	0
   753  0079FF  00                 	db	0
   754  007A00  00                 	db	0
   755  007A01                     __end_of_FoodPIX:
   756                           	opt stack 0
   757  007A01                     _Drifblim:
   758                           	opt stack 0
   759  007A01  00                 	db	0
   760  007A02  00                 	db	0
   761  007A03  00                 	db	0
   762  007A04  00                 	db	0
   763  007A05  00                 	db	0
   764  007A06  00                 	db	0
   765  007A07  00                 	db	0
   766  007A08  00                 	db	0
   767  007A09  00                 	db	0
   768  007A0A  00                 	db	0
   769  007A0B  00                 	db	0
   770  007A0C  00                 	db	0
   771  007A0D  00                 	db	0
   772  007A0E  00                 	db	0
   773  007A0F  00                 	db	0
   774  007A10  00                 	db	0
   775  007A11  00                 	db	0
   776  007A12  00                 	db	0
   777  007A13  00                 	db	0
   778  007A14  00                 	db	0
   779  007A15  00                 	db	0
   780  007A16  00                 	db	0
   781  007A17  00                 	db	0
   782  007A18  00                 	db	0
   783  007A19  00                 	db	0
   784  007A1A  00                 	db	0
   785  007A1B  00                 	db	0
   786  007A1C  00                 	db	0
   787  007A1D  00                 	db	0
   788  007A1E  00                 	db	0
   789  007A1F  00                 	db	0
   790  007A20  00                 	db	0
   791  007A21  00                 	db	0
   792  007A22  00                 	db	0
   793  007A23  00                 	db	0
   794  007A24  00                 	db	0
   795  007A25  00                 	db	0
   796  007A26  00                 	db	0
   797  007A27  00                 	db	0
   798  007A28  00                 	db	0
   799  007A29  00                 	db	0
   800  007A2A  00                 	db	0
   801  007A2B  00                 	db	0
   802  007A2C  00                 	db	0
   803  007A2D  00                 	db	0
   804  007A2E  00                 	db	0
   805  007A2F  00                 	db	0
   806  007A30  00                 	db	0
   807  007A31  00                 	db	0
   808  007A32  00                 	db	0
   809  007A33  00                 	db	0
   810  007A34  00                 	db	0
   811  007A35  00                 	db	0
   812  007A36  00                 	db	0
   813  007A37  00                 	db	0
   814  007A38  00                 	db	0
   815  007A39  00                 	db	0
   816  007A3A  00                 	db	0
   817  007A3B  00                 	db	0
   818  007A3C  00                 	db	0
   819  007A3D  00                 	db	0
   820  007A3E  00                 	db	0
   821  007A3F  00                 	db	0
   822  007A40  00                 	db	0
   823  007A41  00                 	db	0
   824  007A42  00                 	db	0
   825  007A43  00                 	db	0
   826  007A44  00                 	db	0
   827  007A45  00                 	db	0
   828  007A46  00                 	db	0
   829  007A47  00                 	db	0
   830  007A48  00                 	db	0
   831  007A49  00                 	db	0
   832  007A4A  00                 	db	0
   833  007A4B  00                 	db	0
   834  007A4C  00                 	db	0
   835  007A4D  00                 	db	0
   836  007A4E  00                 	db	0
   837  007A4F  00                 	db	0
   838  007A50  00                 	db	0
   839  007A51  00                 	db	0
   840  007A52  00                 	db	0
   841  007A53  00                 	db	0
   842  007A54  00                 	db	0
   843  007A55  00                 	db	0
   844  007A56  00                 	db	0
   845  007A57  00                 	db	0
   846  007A58  00                 	db	0
   847  007A59  00                 	db	0
   848  007A5A  00                 	db	0
   849  007A5B  00                 	db	0
   850  007A5C  00                 	db	0
   851  007A5D  00                 	db	0
   852  007A5E  00                 	db	0
   853  007A5F  00                 	db	0
   854  007A60  00                 	db	0
   855  007A61  00                 	db	0
   856  007A62  00                 	db	0
   857  007A63  00                 	db	0
   858  007A64  00                 	db	0
   859  007A65  00                 	db	0
   860  007A66  00                 	db	0
   861  007A67  00                 	db	0
   862  007A68  00                 	db	0
   863  007A69  00                 	db	0
   864  007A6A  00                 	db	0
   865  007A6B  00                 	db	0
   866  007A6C  00                 	db	0
   867  007A6D  00                 	db	0
   868  007A6E  00                 	db	0
   869  007A6F  00                 	db	0
   870  007A70  00                 	db	0
   871  007A71  00                 	db	0
   872  007A72  00                 	db	0
   873  007A73  00                 	db	0
   874  007A74  00                 	db	0
   875  007A75  8E                 	db	142
   876  007A76  52                 	db	82
   877  007A77  24                 	db	36
   878  007A78  A4                 	db	164
   879  007A79  42                 	db	66
   880  007A7A  42                 	db	66
   881  007A7B  A4                 	db	164
   882  007A7C  42                 	db	66
   883  007A7D  42                 	db	66
   884  007A7E  A4                 	db	164
   885  007A7F  38                 	db	56
   886  007A80  40                 	db	64
   887  007A81  80                 	db	128
   888  007A82  00                 	db	0
   889  007A83  00                 	db	0
   890  007A84  00                 	db	0
   891  007A85  00                 	db	0
   892  007A86  00                 	db	0
   893  007A87  00                 	db	0
   894  007A88  00                 	db	0
   895  007A89  00                 	db	0
   896  007A8A  00                 	db	0
   897  007A8B  00                 	db	0
   898  007A8C  00                 	db	0
   899  007A8D  00                 	db	0
   900  007A8E  00                 	db	0
   901  007A8F  00                 	db	0
   902  007A90  00                 	db	0
   903  007A91  00                 	db	0
   904  007A92  00                 	db	0
   905  007A93  00                 	db	0
   906  007A94  00                 	db	0
   907  007A95  00                 	db	0
   908  007A96  00                 	db	0
   909  007A97  00                 	db	0
   910  007A98  00                 	db	0
   911  007A99  00                 	db	0
   912  007A9A  00                 	db	0
   913  007A9B  00                 	db	0
   914  007A9C  00                 	db	0
   915  007A9D  00                 	db	0
   916  007A9E  00                 	db	0
   917  007A9F  00                 	db	0
   918  007AA0  00                 	db	0
   919  007AA1  00                 	db	0
   920  007AA2  00                 	db	0
   921  007AA3  00                 	db	0
   922  007AA4  00                 	db	0
   923  007AA5  00                 	db	0
   924  007AA6  00                 	db	0
   925  007AA7  00                 	db	0
   926  007AA8  00                 	db	0
   927  007AA9  00                 	db	0
   928  007AAA  00                 	db	0
   929  007AAB  00                 	db	0
   930  007AAC  00                 	db	0
   931  007AAD  00                 	db	0
   932  007AAE  00                 	db	0
   933  007AAF  00                 	db	0
   934  007AB0  00                 	db	0
   935  007AB1  00                 	db	0
   936  007AB2  00                 	db	0
   937  007AB3  00                 	db	0
   938  007AB4  00                 	db	0
   939  007AB5  00                 	db	0
   940  007AB6  00                 	db	0
   941  007AB7  00                 	db	0
   942  007AB8  00                 	db	0
   943  007AB9  00                 	db	0
   944  007ABA  00                 	db	0
   945  007ABB  00                 	db	0
   946  007ABC  00                 	db	0
   947  007ABD  00                 	db	0
   948  007ABE  00                 	db	0
   949  007ABF  00                 	db	0
   950  007AC0  00                 	db	0
   951  007AC1  00                 	db	0
   952  007AC2  00                 	db	0
   953  007AC3  00                 	db	0
   954  007AC4  00                 	db	0
   955  007AC5  00                 	db	0
   956  007AC6  00                 	db	0
   957  007AC7  1C                 	db	28
   958  007AC8  63                 	db	99
   959  007AC9  8C                 	db	140
   960  007ACA  7C                 	db	124
   961  007ACB  53                 	db	83
   962  007ACC  20                 	db	32
   963  007ACD  50                 	db	80
   964  007ACE  FE                 	db	254
   965  007ACF  01                 	db	1
   966  007AD0  30                 	db	48
   967  007AD1  80                 	db	128
   968  007AD2  80                 	db	128
   969  007AD3  83                 	db	131
   970  007AD4  7C                 	db	124
   971  007AD5  A0                 	db	160
   972  007AD6  E3                 	db	227
   973  007AD7  1C                 	db	28
   974  007AD8  00                 	db	0
   975  007AD9  00                 	db	0
   976  007ADA  00                 	db	0
   977  007ADB  00                 	db	0
   978  007ADC  00                 	db	0
   979  007ADD  00                 	db	0
   980  007ADE  00                 	db	0
   981  007ADF  00                 	db	0
   982  007AE0  00                 	db	0
   983  007AE1  00                 	db	0
   984  007AE2  00                 	db	0
   985  007AE3  00                 	db	0
   986  007AE4  00                 	db	0
   987  007AE5  00                 	db	0
   988  007AE6  00                 	db	0
   989  007AE7  00                 	db	0
   990  007AE8  00                 	db	0
   991  007AE9  00                 	db	0
   992  007AEA  00                 	db	0
   993  007AEB  00                 	db	0
   994  007AEC  00                 	db	0
   995  007AED  00                 	db	0
   996  007AEE  00                 	db	0
   997  007AEF  00                 	db	0
   998  007AF0  00                 	db	0
   999  007AF1  00                 	db	0
  1000  007AF2  00                 	db	0
  1001  007AF3  00                 	db	0
  1002  007AF4  00                 	db	0
  1003  007AF5  00                 	db	0
  1004  007AF6  00                 	db	0
  1005  007AF7  00                 	db	0
  1006  007AF8  00                 	db	0
  1007  007AF9  00                 	db	0
  1008  007AFA  00                 	db	0
  1009  007AFB  00                 	db	0
  1010  007AFC  00                 	db	0
  1011  007AFD  00                 	db	0
  1012  007AFE  00                 	db	0
  1013  007AFF  00                 	db	0
  1014  007B00  00                 	db	0
  1015  007B01  00                 	db	0
  1016  007B02  00                 	db	0
  1017  007B03  00                 	db	0
  1018  007B04  00                 	db	0
  1019  007B05  00                 	db	0
  1020  007B06  00                 	db	0
  1021  007B07  00                 	db	0
  1022  007B08  00                 	db	0
  1023  007B09  00                 	db	0
  1024  007B0A  00                 	db	0
  1025  007B0B  00                 	db	0
  1026  007B0C  00                 	db	0
  1027  007B0D  00                 	db	0
  1028  007B0E  00                 	db	0
  1029  007B0F  00                 	db	0
  1030  007B10  00                 	db	0
  1031  007B11  00                 	db	0
  1032  007B12  00                 	db	0
  1033  007B13  00                 	db	0
  1034  007B14  00                 	db	0
  1035  007B15  00                 	db	0
  1036  007B16  00                 	db	0
  1037  007B17  0C                 	db	12
  1038  007B18  14                 	db	20
  1039  007B19  12                 	db	18
  1040  007B1A  12                 	db	18
  1041  007B1B  09                 	db	9
  1042  007B1C  09                 	db	9
  1043  007B1D  04                 	db	4
  1044  007B1E  03                 	db	3
  1045  007B1F  02                 	db	2
  1046  007B20  12                 	db	18
  1047  007B21  2C                 	db	44
  1048  007B22  44                 	db	68
  1049  007B23  25                 	db	37
  1050  007B24  4F                 	db	79
  1051  007B25  30                 	db	48
  1052  007B26  53                 	db	83
  1053  007B27  86                 	db	134
  1054  007B28  49                 	db	73
  1055  007B29  92                 	db	146
  1056  007B2A  A2                 	db	162
  1057  007B2B  45                 	db	69
  1058  007B2C  07                 	db	7
  1059  007B2D  05                 	db	5
  1060  007B2E  03                 	db	3
  1061  007B2F  00                 	db	0
  1062  007B30  00                 	db	0
  1063  007B31  00                 	db	0
  1064  007B32  00                 	db	0
  1065  007B33  00                 	db	0
  1066  007B34  00                 	db	0
  1067  007B35  00                 	db	0
  1068  007B36  00                 	db	0
  1069  007B37  00                 	db	0
  1070  007B38  00                 	db	0
  1071  007B39  00                 	db	0
  1072  007B3A  00                 	db	0
  1073  007B3B  00                 	db	0
  1074  007B3C  00                 	db	0
  1075  007B3D  00                 	db	0
  1076  007B3E  00                 	db	0
  1077  007B3F  00                 	db	0
  1078  007B40  00                 	db	0
  1079  007B41  00                 	db	0
  1080  007B42  00                 	db	0
  1081  007B43  00                 	db	0
  1082  007B44  00                 	db	0
  1083  007B45  00                 	db	0
  1084  007B46  00                 	db	0
  1085  007B47  00                 	db	0
  1086  007B48  00                 	db	0
  1087  007B49  00                 	db	0
  1088  007B4A  00                 	db	0
  1089  007B4B  00                 	db	0
  1090  007B4C  00                 	db	0
  1091  007B4D  00                 	db	0
  1092  007B4E  00                 	db	0
  1093  007B4F  00                 	db	0
  1094  007B50  00                 	db	0
  1095  007B51  00                 	db	0
  1096  007B52  00                 	db	0
  1097  007B53  00                 	db	0
  1098  007B54  00                 	db	0
  1099  007B55  00                 	db	0
  1100  007B56  00                 	db	0
  1101  007B57  00                 	db	0
  1102  007B58  00                 	db	0
  1103  007B59  00                 	db	0
  1104  007B5A  00                 	db	0
  1105  007B5B  00                 	db	0
  1106  007B5C  00                 	db	0
  1107  007B5D  00                 	db	0
  1108  007B5E  00                 	db	0
  1109  007B5F  00                 	db	0
  1110  007B60  00                 	db	0
  1111  007B61  00                 	db	0
  1112  007B62  00                 	db	0
  1113  007B63  00                 	db	0
  1114  007B64  00                 	db	0
  1115  007B65  00                 	db	0
  1116  007B66  00                 	db	0
  1117  007B67  00                 	db	0
  1118  007B68  00                 	db	0
  1119  007B69  00                 	db	0
  1120  007B6A  00                 	db	0
  1121  007B6B  00                 	db	0
  1122  007B6C  00                 	db	0
  1123  007B6D  00                 	db	0
  1124  007B6E  00                 	db	0
  1125  007B6F  00                 	db	0
  1126  007B70  00                 	db	0
  1127  007B71  00                 	db	0
  1128  007B72  00                 	db	0
  1129  007B73  00                 	db	0
  1130  007B74  00                 	db	0
  1131  007B75  00                 	db	0
  1132  007B76  00                 	db	0
  1133  007B77  00                 	db	0
  1134  007B78  00                 	db	0
  1135  007B79  00                 	db	0
  1136  007B7A  00                 	db	0
  1137  007B7B  00                 	db	0
  1138  007B7C  01                 	db	1
  1139  007B7D  00                 	db	0
  1140  007B7E  00                 	db	0
  1141  007B7F  00                 	db	0
  1142  007B80  00                 	db	0
  1143  007B81  00                 	db	0
  1144  007B82  00                 	db	0
  1145  007B83  00                 	db	0
  1146  007B84  00                 	db	0
  1147  007B85  00                 	db	0
  1148  007B86  00                 	db	0
  1149  007B87  00                 	db	0
  1150  007B88  00                 	db	0
  1151  007B89  00                 	db	0
  1152  007B8A  00                 	db	0
  1153  007B8B  00                 	db	0
  1154  007B8C  00                 	db	0
  1155  007B8D  00                 	db	0
  1156  007B8E  00                 	db	0
  1157  007B8F  00                 	db	0
  1158  007B90  00                 	db	0
  1159  007B91  00                 	db	0
  1160  007B92  00                 	db	0
  1161  007B93  00                 	db	0
  1162  007B94  00                 	db	0
  1163  007B95  00                 	db	0
  1164  007B96  00                 	db	0
  1165  007B97  00                 	db	0
  1166  007B98  00                 	db	0
  1167  007B99  00                 	db	0
  1168  007B9A  00                 	db	0
  1169  007B9B  00                 	db	0
  1170  007B9C  00                 	db	0
  1171  007B9D  00                 	db	0
  1172  007B9E  00                 	db	0
  1173  007B9F  00                 	db	0
  1174  007BA0  00                 	db	0
  1175  007BA1  00                 	db	0
  1176  007BA2  00                 	db	0
  1177  007BA3  00                 	db	0
  1178  007BA4  00                 	db	0
  1179  007BA5  00                 	db	0
  1180  007BA6  00                 	db	0
  1181  007BA7  00                 	db	0
  1182  007BA8  00                 	db	0
  1183  007BA9  00                 	db	0
  1184  007BAA  00                 	db	0
  1185  007BAB  00                 	db	0
  1186  007BAC  00                 	db	0
  1187  007BAD  00                 	db	0
  1188  007BAE  00                 	db	0
  1189  007BAF  00                 	db	0
  1190  007BB0  00                 	db	0
  1191  007BB1  00                 	db	0
  1192  007BB2  00                 	db	0
  1193  007BB3  00                 	db	0
  1194  007BB4  00                 	db	0
  1195  007BB5  00                 	db	0
  1196  007BB6  00                 	db	0
  1197  007BB7  00                 	db	0
  1198  007BB8  00                 	db	0
  1199  007BB9  00                 	db	0
  1200  007BBA  00                 	db	0
  1201  007BBB  00                 	db	0
  1202  007BBC  00                 	db	0
  1203  007BBD  00                 	db	0
  1204  007BBE  00                 	db	0
  1205  007BBF  00                 	db	0
  1206  007BC0  00                 	db	0
  1207  007BC1  00                 	db	0
  1208  007BC2  00                 	db	0
  1209  007BC3  00                 	db	0
  1210  007BC4  00                 	db	0
  1211  007BC5  00                 	db	0
  1212  007BC6  00                 	db	0
  1213  007BC7  00                 	db	0
  1214  007BC8  00                 	db	0
  1215  007BC9  00                 	db	0
  1216  007BCA  00                 	db	0
  1217  007BCB  00                 	db	0
  1218  007BCC  00                 	db	0
  1219  007BCD  00                 	db	0
  1220  007BCE  00                 	db	0
  1221  007BCF  00                 	db	0
  1222  007BD0  00                 	db	0
  1223  007BD1  00                 	db	0
  1224  007BD2  00                 	db	0
  1225  007BD3  00                 	db	0
  1226  007BD4  00                 	db	0
  1227  007BD5  00                 	db	0
  1228  007BD6  00                 	db	0
  1229  007BD7  00                 	db	0
  1230  007BD8  00                 	db	0
  1231  007BD9  00                 	db	0
  1232  007BDA  00                 	db	0
  1233  007BDB  00                 	db	0
  1234  007BDC  00                 	db	0
  1235  007BDD  00                 	db	0
  1236  007BDE  00                 	db	0
  1237  007BDF  00                 	db	0
  1238  007BE0  00                 	db	0
  1239  007BE1  00                 	db	0
  1240  007BE2  00                 	db	0
  1241  007BE3  00                 	db	0
  1242  007BE4  00                 	db	0
  1243  007BE5  00                 	db	0
  1244  007BE6  00                 	db	0
  1245  007BE7  00                 	db	0
  1246  007BE8  00                 	db	0
  1247  007BE9  00                 	db	0
  1248  007BEA  00                 	db	0
  1249  007BEB  00                 	db	0
  1250  007BEC  00                 	db	0
  1251  007BED  00                 	db	0
  1252  007BEE  00                 	db	0
  1253  007BEF  00                 	db	0
  1254  007BF0  00                 	db	0
  1255  007BF1  00                 	db	0
  1256  007BF2  00                 	db	0
  1257  007BF3  00                 	db	0
  1258  007BF4  00                 	db	0
  1259  007BF5  00                 	db	0
  1260  007BF6  00                 	db	0
  1261  007BF7  00                 	db	0
  1262  007BF8  00                 	db	0
  1263  007BF9                     __end_of_Drifblim:
  1264                           	opt stack 0
  1265  007BF9                     _Drifloon:
  1266                           	opt stack 0
  1267  007BF9  00                 	db	0
  1268  007BFA  00                 	db	0
  1269  007BFB  00                 	db	0
  1270  007BFC  00                 	db	0
  1271  007BFD  00                 	db	0
  1272  007BFE  00                 	db	0
  1273  007BFF  00                 	db	0
  1274  007C00  00                 	db	0
  1275  007C01  00                 	db	0
  1276  007C02  00                 	db	0
  1277  007C03  00                 	db	0
  1278  007C04  00                 	db	0
  1279  007C05  00                 	db	0
  1280  007C06  00                 	db	0
  1281  007C07  00                 	db	0
  1282  007C08  00                 	db	0
  1283  007C09  00                 	db	0
  1284  007C0A  00                 	db	0
  1285  007C0B  00                 	db	0
  1286  007C0C  00                 	db	0
  1287  007C0D  00                 	db	0
  1288  007C0E  00                 	db	0
  1289  007C0F  00                 	db	0
  1290  007C10  00                 	db	0
  1291  007C11  00                 	db	0
  1292  007C12  00                 	db	0
  1293  007C13  00                 	db	0
  1294  007C14  00                 	db	0
  1295  007C15  00                 	db	0
  1296  007C16  00                 	db	0
  1297  007C17  00                 	db	0
  1298  007C18  00                 	db	0
  1299  007C19  00                 	db	0
  1300  007C1A  00                 	db	0
  1301  007C1B  00                 	db	0
  1302  007C1C  00                 	db	0
  1303  007C1D  00                 	db	0
  1304  007C1E  00                 	db	0
  1305  007C1F  00                 	db	0
  1306  007C20  00                 	db	0
  1307  007C21  00                 	db	0
  1308  007C22  00                 	db	0
  1309  007C23  00                 	db	0
  1310  007C24  00                 	db	0
  1311  007C25  00                 	db	0
  1312  007C26  00                 	db	0
  1313  007C27  00                 	db	0
  1314  007C28  00                 	db	0
  1315  007C29  00                 	db	0
  1316  007C2A  00                 	db	0
  1317  007C2B  00                 	db	0
  1318  007C2C  00                 	db	0
  1319  007C2D  00                 	db	0
  1320  007C2E  00                 	db	0
  1321  007C2F  00                 	db	0
  1322  007C30  00                 	db	0
  1323  007C31  00                 	db	0
  1324  007C32  00                 	db	0
  1325  007C33  00                 	db	0
  1326  007C34  00                 	db	0
  1327  007C35  00                 	db	0
  1328  007C36  00                 	db	0
  1329  007C37  00                 	db	0
  1330  007C38  00                 	db	0
  1331  007C39  00                 	db	0
  1332  007C3A  00                 	db	0
  1333  007C3B  00                 	db	0
  1334  007C3C  00                 	db	0
  1335  007C3D  00                 	db	0
  1336  007C3E  00                 	db	0
  1337  007C3F  00                 	db	0
  1338  007C40  00                 	db	0
  1339  007C41  00                 	db	0
  1340  007C42  00                 	db	0
  1341  007C43  00                 	db	0
  1342  007C44  00                 	db	0
  1343  007C45  00                 	db	0
  1344  007C46  00                 	db	0
  1345  007C47  00                 	db	0
  1346  007C48  00                 	db	0
  1347  007C49  00                 	db	0
  1348  007C4A  00                 	db	0
  1349  007C4B  00                 	db	0
  1350  007C4C  00                 	db	0
  1351  007C4D  00                 	db	0
  1352  007C4E  00                 	db	0
  1353  007C4F  00                 	db	0
  1354  007C50  00                 	db	0
  1355  007C51  00                 	db	0
  1356  007C52  00                 	db	0
  1357  007C53  00                 	db	0
  1358  007C54  00                 	db	0
  1359  007C55  00                 	db	0
  1360  007C56  00                 	db	0
  1361  007C57  00                 	db	0
  1362  007C58  00                 	db	0
  1363  007C59  00                 	db	0
  1364  007C5A  00                 	db	0
  1365  007C5B  00                 	db	0
  1366  007C5C  00                 	db	0
  1367  007C5D  00                 	db	0
  1368  007C5E  00                 	db	0
  1369  007C5F  00                 	db	0
  1370  007C60  00                 	db	0
  1371  007C61  00                 	db	0
  1372  007C62  00                 	db	0
  1373  007C63  00                 	db	0
  1374  007C64  00                 	db	0
  1375  007C65  00                 	db	0
  1376  007C66  00                 	db	0
  1377  007C67  00                 	db	0
  1378  007C68  00                 	db	0
  1379  007C69  00                 	db	0
  1380  007C6A  00                 	db	0
  1381  007C6B  00                 	db	0
  1382  007C6C  00                 	db	0
  1383  007C6D  00                 	db	0
  1384  007C6E  00                 	db	0
  1385  007C6F  00                 	db	0
  1386  007C70  C0                 	db	192
  1387  007C71  20                 	db	32
  1388  007C72  20                 	db	32
  1389  007C73  10                 	db	16
  1390  007C74  10                 	db	16
  1391  007C75  20                 	db	32
  1392  007C76  A0                 	db	160
  1393  007C77  40                 	db	64
  1394  007C78  00                 	db	0
  1395  007C79  00                 	db	0
  1396  007C7A  00                 	db	0
  1397  007C7B  00                 	db	0
  1398  007C7C  00                 	db	0
  1399  007C7D  00                 	db	0
  1400  007C7E  00                 	db	0
  1401  007C7F  00                 	db	0
  1402  007C80  00                 	db	0
  1403  007C81  00                 	db	0
  1404  007C82  00                 	db	0
  1405  007C83  00                 	db	0
  1406  007C84  00                 	db	0
  1407  007C85  00                 	db	0
  1408  007C86  00                 	db	0
  1409  007C87  00                 	db	0
  1410  007C88  00                 	db	0
  1411  007C89  00                 	db	0
  1412  007C8A  00                 	db	0
  1413  007C8B  00                 	db	0
  1414  007C8C  00                 	db	0
  1415  007C8D  00                 	db	0
  1416  007C8E  00                 	db	0
  1417  007C8F  00                 	db	0
  1418  007C90  00                 	db	0
  1419  007C91  00                 	db	0
  1420  007C92  00                 	db	0
  1421  007C93  00                 	db	0
  1422  007C94  00                 	db	0
  1423  007C95  00                 	db	0
  1424  007C96  00                 	db	0
  1425  007C97  00                 	db	0
  1426  007C98  00                 	db	0
  1427  007C99  00                 	db	0
  1428  007C9A  00                 	db	0
  1429  007C9B  00                 	db	0
  1430  007C9C  00                 	db	0
  1431  007C9D  00                 	db	0
  1432  007C9E  00                 	db	0
  1433  007C9F  00                 	db	0
  1434  007CA0  00                 	db	0
  1435  007CA1  00                 	db	0
  1436  007CA2  00                 	db	0
  1437  007CA3  00                 	db	0
  1438  007CA4  00                 	db	0
  1439  007CA5  00                 	db	0
  1440  007CA6  00                 	db	0
  1441  007CA7  00                 	db	0
  1442  007CA8  00                 	db	0
  1443  007CA9  00                 	db	0
  1444  007CAA  00                 	db	0
  1445  007CAB  00                 	db	0
  1446  007CAC  00                 	db	0
  1447  007CAD  00                 	db	0
  1448  007CAE  00                 	db	0
  1449  007CAF  00                 	db	0
  1450  007CB0  00                 	db	0
  1451  007CB1  00                 	db	0
  1452  007CB2  00                 	db	0
  1453  007CB3  00                 	db	0
  1454  007CB4  00                 	db	0
  1455  007CB5  00                 	db	0
  1456  007CB6  00                 	db	0
  1457  007CB7  00                 	db	0
  1458  007CB8  00                 	db	0
  1459  007CB9  00                 	db	0
  1460  007CBA  00                 	db	0
  1461  007CBB  00                 	db	0
  1462  007CBC  00                 	db	0
  1463  007CBD  00                 	db	0
  1464  007CBE  00                 	db	0
  1465  007CBF  00                 	db	0
  1466  007CC0  00                 	db	0
  1467  007CC1  38                 	db	56
  1468  007CC2  C6                 	db	198
  1469  007CC3  11                 	db	17
  1470  007CC4  A1                 	db	161
  1471  007CC5  41                 	db	65
  1472  007CC6  A2                 	db	162
  1473  007CC7  02                 	db	2
  1474  007CC8  41                 	db	65
  1475  007CC9  01                 	db	1
  1476  007CCA  01                 	db	1
  1477  007CCB  C6                 	db	198
  1478  007CCC  38                 	db	56
  1479  007CCD  00                 	db	0
  1480  007CCE  00                 	db	0
  1481  007CCF  00                 	db	0
  1482  007CD0  00                 	db	0
  1483  007CD1  00                 	db	0
  1484  007CD2  00                 	db	0
  1485  007CD3  00                 	db	0
  1486  007CD4  00                 	db	0
  1487  007CD5  00                 	db	0
  1488  007CD6  00                 	db	0
  1489  007CD7  00                 	db	0
  1490  007CD8  00                 	db	0
  1491  007CD9  00                 	db	0
  1492  007CDA  00                 	db	0
  1493  007CDB  00                 	db	0
  1494  007CDC  00                 	db	0
  1495  007CDD  00                 	db	0
  1496  007CDE  00                 	db	0
  1497  007CDF  00                 	db	0
  1498  007CE0  00                 	db	0
  1499  007CE1  00                 	db	0
  1500  007CE2  00                 	db	0
  1501  007CE3  00                 	db	0
  1502  007CE4  00                 	db	0
  1503  007CE5  00                 	db	0
  1504  007CE6  00                 	db	0
  1505  007CE7  00                 	db	0
  1506  007CE8  00                 	db	0
  1507  007CE9  00                 	db	0
  1508  007CEA  00                 	db	0
  1509  007CEB  00                 	db	0
  1510  007CEC  00                 	db	0
  1511  007CED  00                 	db	0
  1512  007CEE  00                 	db	0
  1513  007CEF  00                 	db	0
  1514  007CF0  00                 	db	0
  1515  007CF1  00                 	db	0
  1516  007CF2  00                 	db	0
  1517  007CF3  00                 	db	0
  1518  007CF4  00                 	db	0
  1519  007CF5  00                 	db	0
  1520  007CF6  00                 	db	0
  1521  007CF7  00                 	db	0
  1522  007CF8  00                 	db	0
  1523  007CF9  00                 	db	0
  1524  007CFA  00                 	db	0
  1525  007CFB  00                 	db	0
  1526  007CFC  00                 	db	0
  1527  007CFD  00                 	db	0
  1528  007CFE  00                 	db	0
  1529  007CFF  00                 	db	0
  1530  007D00  00                 	db	0
  1531  007D01  00                 	db	0
  1532  007D02  00                 	db	0
  1533  007D03  00                 	db	0
  1534  007D04  00                 	db	0
  1535  007D05  00                 	db	0
  1536  007D06  00                 	db	0
  1537  007D07  00                 	db	0
  1538  007D08  00                 	db	0
  1539  007D09  00                 	db	0
  1540  007D0A  00                 	db	0
  1541  007D0B  00                 	db	0
  1542  007D0C  00                 	db	0
  1543  007D0D  00                 	db	0
  1544  007D0E  00                 	db	0
  1545  007D0F  00                 	db	0
  1546  007D10  00                 	db	0
  1547  007D11  00                 	db	0
  1548  007D12  00                 	db	0
  1549  007D13  00                 	db	0
  1550  007D14  00                 	db	0
  1551  007D15  00                 	db	0
  1552  007D16  00                 	db	0
  1553  007D17  59                 	db	89
  1554  007D18  A5                 	db	165
  1555  007D19  A2                 	db	162
  1556  007D1A  4E                 	db	78
  1557  007D1B  0A                 	db	10
  1558  007D1C  12                 	db	18
  1559  007D1D  11                 	db	17
  1560  007D1E  19                 	db	25
  1561  007D1F  05                 	db	5
  1562  007D20  07                 	db	7
  1563  007D21  82                 	db	130
  1564  007D22  8C                 	db	140
  1565  007D23  70                 	db	112
  1566  007D24  00                 	db	0
  1567  007D25  00                 	db	0
  1568  007D26  00                 	db	0
  1569  007D27  00                 	db	0
  1570  007D28  00                 	db	0
  1571  007D29  00                 	db	0
  1572  007D2A  00                 	db	0
  1573  007D2B  00                 	db	0
  1574  007D2C  00                 	db	0
  1575  007D2D  00                 	db	0
  1576  007D2E  00                 	db	0
  1577  007D2F  00                 	db	0
  1578  007D30  00                 	db	0
  1579  007D31  00                 	db	0
  1580  007D32  00                 	db	0
  1581  007D33  00                 	db	0
  1582  007D34  00                 	db	0
  1583  007D35  00                 	db	0
  1584  007D36  00                 	db	0
  1585  007D37  00                 	db	0
  1586  007D38  00                 	db	0
  1587  007D39  00                 	db	0
  1588  007D3A  00                 	db	0
  1589  007D3B  00                 	db	0
  1590  007D3C  00                 	db	0
  1591  007D3D  00                 	db	0
  1592  007D3E  00                 	db	0
  1593  007D3F  00                 	db	0
  1594  007D40  00                 	db	0
  1595  007D41  00                 	db	0
  1596  007D42  00                 	db	0
  1597  007D43  00                 	db	0
  1598  007D44  00                 	db	0
  1599  007D45  00                 	db	0
  1600  007D46  00                 	db	0
  1601  007D47  00                 	db	0
  1602  007D48  00                 	db	0
  1603  007D49  00                 	db	0
  1604  007D4A  00                 	db	0
  1605  007D4B  00                 	db	0
  1606  007D4C  00                 	db	0
  1607  007D4D  00                 	db	0
  1608  007D4E  00                 	db	0
  1609  007D4F  00                 	db	0
  1610  007D50  00                 	db	0
  1611  007D51  00                 	db	0
  1612  007D52  00                 	db	0
  1613  007D53  00                 	db	0
  1614  007D54  00                 	db	0
  1615  007D55  00                 	db	0
  1616  007D56  00                 	db	0
  1617  007D57  00                 	db	0
  1618  007D58  00                 	db	0
  1619  007D59  00                 	db	0
  1620  007D5A  00                 	db	0
  1621  007D5B  00                 	db	0
  1622  007D5C  00                 	db	0
  1623  007D5D  00                 	db	0
  1624  007D5E  00                 	db	0
  1625  007D5F  00                 	db	0
  1626  007D60  00                 	db	0
  1627  007D61  00                 	db	0
  1628  007D62  00                 	db	0
  1629  007D63  00                 	db	0
  1630  007D64  00                 	db	0
  1631  007D65  00                 	db	0
  1632  007D66  00                 	db	0
  1633  007D67  00                 	db	0
  1634  007D68  00                 	db	0
  1635  007D69  00                 	db	0
  1636  007D6A  00                 	db	0
  1637  007D6B  00                 	db	0
  1638  007D6C  00                 	db	0
  1639  007D6D  00                 	db	0
  1640  007D6E  00                 	db	0
  1641  007D6F  00                 	db	0
  1642  007D70  00                 	db	0
  1643  007D71  00                 	db	0
  1644  007D72  00                 	db	0
  1645  007D73  00                 	db	0
  1646  007D74  01                 	db	1
  1647  007D75  02                 	db	2
  1648  007D76  02                 	db	2
  1649  007D77  01                 	db	1
  1650  007D78  00                 	db	0
  1651  007D79  00                 	db	0
  1652  007D7A  00                 	db	0
  1653  007D7B  00                 	db	0
  1654  007D7C  00                 	db	0
  1655  007D7D  00                 	db	0
  1656  007D7E  00                 	db	0
  1657  007D7F  00                 	db	0
  1658  007D80  00                 	db	0
  1659  007D81  00                 	db	0
  1660  007D82  00                 	db	0
  1661  007D83  00                 	db	0
  1662  007D84  00                 	db	0
  1663  007D85  00                 	db	0
  1664  007D86  00                 	db	0
  1665  007D87  00                 	db	0
  1666  007D88  00                 	db	0
  1667  007D89  00                 	db	0
  1668  007D8A  00                 	db	0
  1669  007D8B  00                 	db	0
  1670  007D8C  00                 	db	0
  1671  007D8D  00                 	db	0
  1672  007D8E  00                 	db	0
  1673  007D8F  00                 	db	0
  1674  007D90  00                 	db	0
  1675  007D91  00                 	db	0
  1676  007D92  00                 	db	0
  1677  007D93  00                 	db	0
  1678  007D94  00                 	db	0
  1679  007D95  00                 	db	0
  1680  007D96  00                 	db	0
  1681  007D97  00                 	db	0
  1682  007D98  00                 	db	0
  1683  007D99  00                 	db	0
  1684  007D9A  00                 	db	0
  1685  007D9B  00                 	db	0
  1686  007D9C  00                 	db	0
  1687  007D9D  00                 	db	0
  1688  007D9E  00                 	db	0
  1689  007D9F  00                 	db	0
  1690  007DA0  00                 	db	0
  1691  007DA1  00                 	db	0
  1692  007DA2  00                 	db	0
  1693  007DA3  00                 	db	0
  1694  007DA4  00                 	db	0
  1695  007DA5  00                 	db	0
  1696  007DA6  00                 	db	0
  1697  007DA7  00                 	db	0
  1698  007DA8  00                 	db	0
  1699  007DA9  00                 	db	0
  1700  007DAA  00                 	db	0
  1701  007DAB  00                 	db	0
  1702  007DAC  00                 	db	0
  1703  007DAD  00                 	db	0
  1704  007DAE  00                 	db	0
  1705  007DAF  00                 	db	0
  1706  007DB0  00                 	db	0
  1707  007DB1  00                 	db	0
  1708  007DB2  00                 	db	0
  1709  007DB3  00                 	db	0
  1710  007DB4  00                 	db	0
  1711  007DB5  00                 	db	0
  1712  007DB6  00                 	db	0
  1713  007DB7  00                 	db	0
  1714  007DB8  00                 	db	0
  1715  007DB9  00                 	db	0
  1716  007DBA  00                 	db	0
  1717  007DBB  00                 	db	0
  1718  007DBC  00                 	db	0
  1719  007DBD  00                 	db	0
  1720  007DBE  00                 	db	0
  1721  007DBF  00                 	db	0
  1722  007DC0  00                 	db	0
  1723  007DC1  00                 	db	0
  1724  007DC2  00                 	db	0
  1725  007DC3  00                 	db	0
  1726  007DC4  00                 	db	0
  1727  007DC5  00                 	db	0
  1728  007DC6  00                 	db	0
  1729  007DC7  00                 	db	0
  1730  007DC8  00                 	db	0
  1731  007DC9  00                 	db	0
  1732  007DCA  00                 	db	0
  1733  007DCB  00                 	db	0
  1734  007DCC  00                 	db	0
  1735  007DCD  00                 	db	0
  1736  007DCE  00                 	db	0
  1737  007DCF  00                 	db	0
  1738  007DD0  00                 	db	0
  1739  007DD1  00                 	db	0
  1740  007DD2  00                 	db	0
  1741  007DD3  00                 	db	0
  1742  007DD4  00                 	db	0
  1743  007DD5  00                 	db	0
  1744  007DD6  00                 	db	0
  1745  007DD7  00                 	db	0
  1746  007DD8  00                 	db	0
  1747  007DD9  00                 	db	0
  1748  007DDA  00                 	db	0
  1749  007DDB  00                 	db	0
  1750  007DDC  00                 	db	0
  1751  007DDD  00                 	db	0
  1752  007DDE  00                 	db	0
  1753  007DDF  00                 	db	0
  1754  007DE0  00                 	db	0
  1755  007DE1  00                 	db	0
  1756  007DE2  00                 	db	0
  1757  007DE3  00                 	db	0
  1758  007DE4  00                 	db	0
  1759  007DE5  00                 	db	0
  1760  007DE6  00                 	db	0
  1761  007DE7  00                 	db	0
  1762  007DE8  00                 	db	0
  1763  007DE9  00                 	db	0
  1764  007DEA  00                 	db	0
  1765  007DEB  00                 	db	0
  1766  007DEC  00                 	db	0
  1767  007DED  00                 	db	0
  1768  007DEE  00                 	db	0
  1769  007DEF  00                 	db	0
  1770  007DF0  00                 	db	0
  1771  007DF1                     __end_of_Drifloon:
  1772                           	opt stack 0
  1773  007DF1                     _Egg:
  1774                           	opt stack 0
  1775  007DF1  00                 	db	0
  1776  007DF2  00                 	db	0
  1777  007DF3  00                 	db	0
  1778  007DF4  00                 	db	0
  1779  007DF5  00                 	db	0
  1780  007DF6  00                 	db	0
  1781  007DF7  00                 	db	0
  1782  007DF8  00                 	db	0
  1783  007DF9  00                 	db	0
  1784  007DFA  00                 	db	0
  1785  007DFB  00                 	db	0
  1786  007DFC  00                 	db	0
  1787  007DFD  00                 	db	0
  1788  007DFE  00                 	db	0
  1789  007DFF  00                 	db	0
  1790  007E00  00                 	db	0
  1791  007E01  00                 	db	0
  1792  007E02  00                 	db	0
  1793  007E03  00                 	db	0
  1794  007E04  00                 	db	0
  1795  007E05  00                 	db	0
  1796  007E06  00                 	db	0
  1797  007E07  00                 	db	0
  1798  007E08  00                 	db	0
  1799  007E09  00                 	db	0
  1800  007E0A  00                 	db	0
  1801  007E0B  00                 	db	0
  1802  007E0C  00                 	db	0
  1803  007E0D  00                 	db	0
  1804  007E0E  00                 	db	0
  1805  007E0F  00                 	db	0
  1806  007E10  00                 	db	0
  1807  007E11  00                 	db	0
  1808  007E12  00                 	db	0
  1809  007E13  00                 	db	0
  1810  007E14  00                 	db	0
  1811  007E15  00                 	db	0
  1812  007E16  00                 	db	0
  1813  007E17  00                 	db	0
  1814  007E18  00                 	db	0
  1815  007E19  00                 	db	0
  1816  007E1A  00                 	db	0
  1817  007E1B  00                 	db	0
  1818  007E1C  00                 	db	0
  1819  007E1D  00                 	db	0
  1820  007E1E  00                 	db	0
  1821  007E1F  00                 	db	0
  1822  007E20  00                 	db	0
  1823  007E21  00                 	db	0
  1824  007E22  00                 	db	0
  1825  007E23  00                 	db	0
  1826  007E24  00                 	db	0
  1827  007E25  00                 	db	0
  1828  007E26  00                 	db	0
  1829  007E27  00                 	db	0
  1830  007E28  00                 	db	0
  1831  007E29  00                 	db	0
  1832  007E2A  00                 	db	0
  1833  007E2B  00                 	db	0
  1834  007E2C  00                 	db	0
  1835  007E2D  00                 	db	0
  1836  007E2E  00                 	db	0
  1837  007E2F  00                 	db	0
  1838  007E30  00                 	db	0
  1839  007E31  00                 	db	0
  1840  007E32  00                 	db	0
  1841  007E33  00                 	db	0
  1842  007E34  00                 	db	0
  1843  007E35  00                 	db	0
  1844  007E36  00                 	db	0
  1845  007E37  00                 	db	0
  1846  007E38  00                 	db	0
  1847  007E39  00                 	db	0
  1848  007E3A  00                 	db	0
  1849  007E3B  00                 	db	0
  1850  007E3C  00                 	db	0
  1851  007E3D  00                 	db	0
  1852  007E3E  00                 	db	0
  1853  007E3F  00                 	db	0
  1854  007E40  00                 	db	0
  1855  007E41  00                 	db	0
  1856  007E42  00                 	db	0
  1857  007E43  00                 	db	0
  1858  007E44  00                 	db	0
  1859  007E45  00                 	db	0
  1860  007E46  00                 	db	0
  1861  007E47  00                 	db	0
  1862  007E48  00                 	db	0
  1863  007E49  00                 	db	0
  1864  007E4A  00                 	db	0
  1865  007E4B  00                 	db	0
  1866  007E4C  00                 	db	0
  1867  007E4D  00                 	db	0
  1868  007E4E  00                 	db	0
  1869  007E4F  00                 	db	0
  1870  007E50  00                 	db	0
  1871  007E51  00                 	db	0
  1872  007E52  00                 	db	0
  1873  007E53  00                 	db	0
  1874  007E54  00                 	db	0
  1875  007E55  00                 	db	0
  1876  007E56  00                 	db	0
  1877  007E57  00                 	db	0
  1878  007E58  00                 	db	0
  1879  007E59  00                 	db	0
  1880  007E5A  00                 	db	0
  1881  007E5B  00                 	db	0
  1882  007E5C  00                 	db	0
  1883  007E5D  00                 	db	0
  1884  007E5E  00                 	db	0
  1885  007E5F  00                 	db	0
  1886  007E60  00                 	db	0
  1887  007E61  00                 	db	0
  1888  007E62  00                 	db	0
  1889  007E63  00                 	db	0
  1890  007E64  00                 	db	0
  1891  007E65  00                 	db	0
  1892  007E66  00                 	db	0
  1893  007E67  00                 	db	0
  1894  007E68  00                 	db	0
  1895  007E69  00                 	db	0
  1896  007E6A  00                 	db	0
  1897  007E6B  00                 	db	0
  1898  007E6C  00                 	db	0
  1899  007E6D  00                 	db	0
  1900  007E6E  00                 	db	0
  1901  007E6F  00                 	db	0
  1902  007E70  00                 	db	0
  1903  007E71  00                 	db	0
  1904  007E72  00                 	db	0
  1905  007E73  00                 	db	0
  1906  007E74  00                 	db	0
  1907  007E75  00                 	db	0
  1908  007E76  00                 	db	0
  1909  007E77  00                 	db	0
  1910  007E78  00                 	db	0
  1911  007E79  00                 	db	0
  1912  007E7A  00                 	db	0
  1913  007E7B  00                 	db	0
  1914  007E7C  00                 	db	0
  1915  007E7D  00                 	db	0
  1916  007E7E  00                 	db	0
  1917  007E7F  00                 	db	0
  1918  007E80  00                 	db	0
  1919  007E81  00                 	db	0
  1920  007E82  00                 	db	0
  1921  007E83  00                 	db	0
  1922  007E84  00                 	db	0
  1923  007E85  00                 	db	0
  1924  007E86  00                 	db	0
  1925  007E87  00                 	db	0
  1926  007E88  00                 	db	0
  1927  007E89  00                 	db	0
  1928  007E8A  00                 	db	0
  1929  007E8B  00                 	db	0
  1930  007E8C  00                 	db	0
  1931  007E8D  00                 	db	0
  1932  007E8E  00                 	db	0
  1933  007E8F  00                 	db	0
  1934  007E90  00                 	db	0
  1935  007E91  00                 	db	0
  1936  007E92  00                 	db	0
  1937  007E93  00                 	db	0
  1938  007E94  00                 	db	0
  1939  007E95  00                 	db	0
  1940  007E96  00                 	db	0
  1941  007E97  00                 	db	0
  1942  007E98  00                 	db	0
  1943  007E99  00                 	db	0
  1944  007E9A  00                 	db	0
  1945  007E9B  00                 	db	0
  1946  007E9C  00                 	db	0
  1947  007E9D  00                 	db	0
  1948  007E9E  00                 	db	0
  1949  007E9F  00                 	db	0
  1950  007EA0  00                 	db	0
  1951  007EA1  00                 	db	0
  1952  007EA2  00                 	db	0
  1953  007EA3  00                 	db	0
  1954  007EA4  00                 	db	0
  1955  007EA5  00                 	db	0
  1956  007EA6  00                 	db	0
  1957  007EA7  00                 	db	0
  1958  007EA8  00                 	db	0
  1959  007EA9  00                 	db	0
  1960  007EAA  00                 	db	0
  1961  007EAB  00                 	db	0
  1962  007EAC  00                 	db	0
  1963  007EAD  00                 	db	0
  1964  007EAE  00                 	db	0
  1965  007EAF  00                 	db	0
  1966  007EB0  00                 	db	0
  1967  007EB1  00                 	db	0
  1968  007EB2  00                 	db	0
  1969  007EB3  00                 	db	0
  1970  007EB4  00                 	db	0
  1971  007EB5  00                 	db	0
  1972  007EB6  00                 	db	0
  1973  007EB7  00                 	db	0
  1974  007EB8  00                 	db	0
  1975  007EB9  00                 	db	0
  1976  007EBA  00                 	db	0
  1977  007EBB  E0                 	db	224
  1978  007EBC  18                 	db	24
  1979  007EBD  1C                 	db	28
  1980  007EBE  1E                 	db	30
  1981  007EBF  0E                 	db	14
  1982  007EC0  01                 	db	1
  1983  007EC1  01                 	db	1
  1984  007EC2  01                 	db	1
  1985  007EC3  62                 	db	98
  1986  007EC4  E2                 	db	226
  1987  007EC5  C4                 	db	196
  1988  007EC6  18                 	db	24
  1989  007EC7  E0                 	db	224
  1990  007EC8  00                 	db	0
  1991  007EC9  00                 	db	0
  1992  007ECA  00                 	db	0
  1993  007ECB  00                 	db	0
  1994  007ECC  00                 	db	0
  1995  007ECD  00                 	db	0
  1996  007ECE  00                 	db	0
  1997  007ECF  00                 	db	0
  1998  007ED0  00                 	db	0
  1999  007ED1  00                 	db	0
  2000  007ED2  00                 	db	0
  2001  007ED3  00                 	db	0
  2002  007ED4  00                 	db	0
  2003  007ED5  00                 	db	0
  2004  007ED6  00                 	db	0
  2005  007ED7  00                 	db	0
  2006  007ED8  00                 	db	0
  2007  007ED9  00                 	db	0
  2008  007EDA  00                 	db	0
  2009  007EDB  00                 	db	0
  2010  007EDC  00                 	db	0
  2011  007EDD  00                 	db	0
  2012  007EDE  00                 	db	0
  2013  007EDF  00                 	db	0
  2014  007EE0  00                 	db	0
  2015  007EE1  00                 	db	0
  2016  007EE2  00                 	db	0
  2017  007EE3  00                 	db	0
  2018  007EE4  00                 	db	0
  2019  007EE5  00                 	db	0
  2020  007EE6  00                 	db	0
  2021  007EE7  00                 	db	0
  2022  007EE8  00                 	db	0
  2023  007EE9  00                 	db	0
  2024  007EEA  00                 	db	0
  2025  007EEB  00                 	db	0
  2026  007EEC  00                 	db	0
  2027  007EED  00                 	db	0
  2028  007EEE  00                 	db	0
  2029  007EEF  00                 	db	0
  2030  007EF0  00                 	db	0
  2031  007EF1  00                 	db	0
  2032  007EF2  00                 	db	0
  2033  007EF3  00                 	db	0
  2034  007EF4  00                 	db	0
  2035  007EF5  00                 	db	0
  2036  007EF6  00                 	db	0
  2037  007EF7  00                 	db	0
  2038  007EF8  00                 	db	0
  2039  007EF9  00                 	db	0
  2040  007EFA  00                 	db	0
  2041  007EFB  00                 	db	0
  2042  007EFC  00                 	db	0
  2043  007EFD  00                 	db	0
  2044  007EFE  00                 	db	0
  2045  007EFF  00                 	db	0
  2046  007F00  00                 	db	0
  2047  007F01  00                 	db	0
  2048  007F02  00                 	db	0
  2049  007F03  00                 	db	0
  2050  007F04  00                 	db	0
  2051  007F05  00                 	db	0
  2052  007F06  00                 	db	0
  2053  007F07  00                 	db	0
  2054  007F08  00                 	db	0
  2055  007F09  00                 	db	0
  2056  007F0A  00                 	db	0
  2057  007F0B  00                 	db	0
  2058  007F0C  00                 	db	0
  2059  007F0D  00                 	db	0
  2060  007F0E  00                 	db	0
  2061  007F0F  03                 	db	3
  2062  007F10  0C                 	db	12
  2063  007F11  10                 	db	16
  2064  007F12  13                 	db	19
  2065  007F13  23                 	db	35
  2066  007F14  20                 	db	32
  2067  007F15  2C                 	db	44
  2068  007F16  3E                 	db	62
  2069  007F17  3E                 	db	62
  2070  007F18  1E                 	db	30
  2071  007F19  14                 	db	20
  2072  007F1A  0C                 	db	12
  2073  007F1B  03                 	db	3
  2074  007F1C  00                 	db	0
  2075  007F1D  00                 	db	0
  2076  007F1E  00                 	db	0
  2077  007F1F  00                 	db	0
  2078  007F20  00                 	db	0
  2079  007F21  00                 	db	0
  2080  007F22  00                 	db	0
  2081  007F23  00                 	db	0
  2082  007F24  00                 	db	0
  2083  007F25  00                 	db	0
  2084  007F26  00                 	db	0
  2085  007F27  00                 	db	0
  2086  007F28  00                 	db	0
  2087  007F29  00                 	db	0
  2088  007F2A  00                 	db	0
  2089  007F2B  00                 	db	0
  2090  007F2C  00                 	db	0
  2091  007F2D  00                 	db	0
  2092  007F2E  00                 	db	0
  2093  007F2F  00                 	db	0
  2094  007F30  00                 	db	0
  2095  007F31  00                 	db	0
  2096  007F32  00                 	db	0
  2097  007F33  00                 	db	0
  2098  007F34  00                 	db	0
  2099  007F35  00                 	db	0
  2100  007F36  00                 	db	0
  2101  007F37  00                 	db	0
  2102  007F38  00                 	db	0
  2103  007F39  00                 	db	0
  2104  007F3A  00                 	db	0
  2105  007F3B  00                 	db	0
  2106  007F3C  00                 	db	0
  2107  007F3D  00                 	db	0
  2108  007F3E  00                 	db	0
  2109  007F3F  00                 	db	0
  2110  007F40  00                 	db	0
  2111  007F41  00                 	db	0
  2112  007F42  00                 	db	0
  2113  007F43  00                 	db	0
  2114  007F44  00                 	db	0
  2115  007F45  00                 	db	0
  2116  007F46  00                 	db	0
  2117  007F47  00                 	db	0
  2118  007F48  00                 	db	0
  2119  007F49  00                 	db	0
  2120  007F4A  00                 	db	0
  2121  007F4B  00                 	db	0
  2122  007F4C  00                 	db	0
  2123  007F4D  00                 	db	0
  2124  007F4E  00                 	db	0
  2125  007F4F  00                 	db	0
  2126  007F50  00                 	db	0
  2127  007F51  00                 	db	0
  2128  007F52  00                 	db	0
  2129  007F53  00                 	db	0
  2130  007F54  00                 	db	0
  2131  007F55  00                 	db	0
  2132  007F56  00                 	db	0
  2133  007F57  00                 	db	0
  2134  007F58  00                 	db	0
  2135  007F59  00                 	db	0
  2136  007F5A  00                 	db	0
  2137  007F5B  00                 	db	0
  2138  007F5C  00                 	db	0
  2139  007F5D  00                 	db	0
  2140  007F5E  00                 	db	0
  2141  007F5F  00                 	db	0
  2142  007F60  00                 	db	0
  2143  007F61  00                 	db	0
  2144  007F62  00                 	db	0
  2145  007F63  00                 	db	0
  2146  007F64  00                 	db	0
  2147  007F65  00                 	db	0
  2148  007F66  00                 	db	0
  2149  007F67  00                 	db	0
  2150  007F68  00                 	db	0
  2151  007F69  00                 	db	0
  2152  007F6A  00                 	db	0
  2153  007F6B  00                 	db	0
  2154  007F6C  00                 	db	0
  2155  007F6D  00                 	db	0
  2156  007F6E  00                 	db	0
  2157  007F6F  00                 	db	0
  2158  007F70  00                 	db	0
  2159  007F71  00                 	db	0
  2160  007F72  00                 	db	0
  2161  007F73  00                 	db	0
  2162  007F74  00                 	db	0
  2163  007F75  00                 	db	0
  2164  007F76  00                 	db	0
  2165  007F77  00                 	db	0
  2166  007F78  00                 	db	0
  2167  007F79  00                 	db	0
  2168  007F7A  00                 	db	0
  2169  007F7B  00                 	db	0
  2170  007F7C  00                 	db	0
  2171  007F7D  00                 	db	0
  2172  007F7E  00                 	db	0
  2173  007F7F  00                 	db	0
  2174  007F80  00                 	db	0
  2175  007F81  00                 	db	0
  2176  007F82  00                 	db	0
  2177  007F83  00                 	db	0
  2178  007F84  00                 	db	0
  2179  007F85  00                 	db	0
  2180  007F86  00                 	db	0
  2181  007F87  00                 	db	0
  2182  007F88  00                 	db	0
  2183  007F89  00                 	db	0
  2184  007F8A  00                 	db	0
  2185  007F8B  00                 	db	0
  2186  007F8C  00                 	db	0
  2187  007F8D  00                 	db	0
  2188  007F8E  00                 	db	0
  2189  007F8F  00                 	db	0
  2190  007F90  00                 	db	0
  2191  007F91  00                 	db	0
  2192  007F92  00                 	db	0
  2193  007F93  00                 	db	0
  2194  007F94  00                 	db	0
  2195  007F95  00                 	db	0
  2196  007F96  00                 	db	0
  2197  007F97  00                 	db	0
  2198  007F98  00                 	db	0
  2199  007F99  00                 	db	0
  2200  007F9A  00                 	db	0
  2201  007F9B  00                 	db	0
  2202  007F9C  00                 	db	0
  2203  007F9D  00                 	db	0
  2204  007F9E  00                 	db	0
  2205  007F9F  00                 	db	0
  2206  007FA0  00                 	db	0
  2207  007FA1  00                 	db	0
  2208  007FA2  00                 	db	0
  2209  007FA3  00                 	db	0
  2210  007FA4  00                 	db	0
  2211  007FA5  00                 	db	0
  2212  007FA6  00                 	db	0
  2213  007FA7  00                 	db	0
  2214  007FA8  00                 	db	0
  2215  007FA9  00                 	db	0
  2216  007FAA  00                 	db	0
  2217  007FAB  00                 	db	0
  2218  007FAC  00                 	db	0
  2219  007FAD  00                 	db	0
  2220  007FAE  00                 	db	0
  2221  007FAF  00                 	db	0
  2222  007FB0  00                 	db	0
  2223  007FB1  00                 	db	0
  2224  007FB2  00                 	db	0
  2225  007FB3  00                 	db	0
  2226  007FB4  00                 	db	0
  2227  007FB5  00                 	db	0
  2228  007FB6  00                 	db	0
  2229  007FB7  00                 	db	0
  2230  007FB8  00                 	db	0
  2231  007FB9  00                 	db	0
  2232  007FBA  00                 	db	0
  2233  007FBB  00                 	db	0
  2234  007FBC  00                 	db	0
  2235  007FBD  00                 	db	0
  2236  007FBE  00                 	db	0
  2237  007FBF  00                 	db	0
  2238  007FC0  00                 	db	0
  2239  007FC1  00                 	db	0
  2240  007FC2  00                 	db	0
  2241  007FC3  00                 	db	0
  2242  007FC4  00                 	db	0
  2243  007FC5  00                 	db	0
  2244  007FC6  00                 	db	0
  2245  007FC7  00                 	db	0
  2246  007FC8  00                 	db	0
  2247  007FC9  00                 	db	0
  2248  007FCA  00                 	db	0
  2249  007FCB  00                 	db	0
  2250  007FCC  00                 	db	0
  2251  007FCD  00                 	db	0
  2252  007FCE  00                 	db	0
  2253  007FCF  00                 	db	0
  2254  007FD0  00                 	db	0
  2255  007FD1  00                 	db	0
  2256  007FD2  00                 	db	0
  2257  007FD3  00                 	db	0
  2258  007FD4  00                 	db	0
  2259  007FD5  00                 	db	0
  2260  007FD6  00                 	db	0
  2261  007FD7  00                 	db	0
  2262  007FD8  00                 	db	0
  2263  007FD9  00                 	db	0
  2264  007FDA  00                 	db	0
  2265  007FDB  00                 	db	0
  2266  007FDC  00                 	db	0
  2267  007FDD  00                 	db	0
  2268  007FDE  00                 	db	0
  2269  007FDF  00                 	db	0
  2270  007FE0  00                 	db	0
  2271  007FE1  00                 	db	0
  2272  007FE2  00                 	db	0
  2273  007FE3  00                 	db	0
  2274  007FE4  00                 	db	0
  2275  007FE5  00                 	db	0
  2276  007FE6  00                 	db	0
  2277  007FE7  00                 	db	0
  2278  007FE8  00                 	db	0
  2279  007FE9                     __end_of_Egg:
  2280                           	opt stack 0
  2281  0000                     _PORTBbits	set	3969
  2282  0000                     _TRISB	set	3987
  2283  0000                     _TRISB0	set	31896
  2284  0000                     _TRISB1	set	31897
  2285  0000                     _TRISB2	set	31898
  2286  0000                     _TRISB3	set	31899
  2287  0000                     _TRISB4	set	31900
  2288  007FE9                     STR_3:
  2289  007FE9  44                 	db	68	;'D'
  2290  007FEA  72                 	db	114	;'r'
  2291  007FEB  69                 	db	105	;'i'
  2292  007FEC  66                 	db	102	;'f'
  2293  007FED  62                 	db	98	;'b'
  2294  007FEE  6C                 	db	108	;'l'
  2295  007FEF  69                 	db	105	;'i'
  2296  007FF0  6D                 	db	109	;'m'
  2297  007FF1  00                 	db	0
  2298  007FF2                     STR_2:
  2299  007FF2  44                 	db	68	;'D'
  2300  007FF3  72                 	db	114	;'r'
  2301  007FF4  69                 	db	105	;'i'
  2302  007FF5  66                 	db	102	;'f'
  2303  007FF6  6C                 	db	108	;'l'
  2304  007FF7  6F                 	db	111	;'o'
  2305  007FF8  6F                 	db	111	;'o'
  2306  007FF9  6E                 	db	110	;'n'
  2307  007FFA  00                 	db	0
  2308  007FFB                     STR_1:
  2309  007FFB  45                 	db	69	;'E'
  2310  007FFC  67                 	db	103	;'g'
  2311  007FFD  67                 	db	103	;'g'
  2312  007FFE  00                 	db	0
  2313                           
  2314                           ; #config settings
  2315  007FFF  00                 	db	0	; dummy byte at the end
  2316  0000                     
  2317                           	psect	cinit
  2318  007318                     __pcinit:
  2319                           	opt stack 0
  2320  007318                     start_initialization:
  2321                           	opt stack 0
  2322  007318                     __initialization:
  2323                           	opt stack 0
  2324                           
  2325                           ; Clear objects allocated to COMRAM (1 bytes)
  2326  007318  6A15               	clrf	__pbssCOMRAM& (0+255),c
  2327  00731A                     end_of_initialization:
  2328                           	opt stack 0
  2329  00731A                     __end_of__initialization:
  2330                           	opt stack 0
  2331  00731A  0E00               	movlw	low (__Lmediumconst shr (0+16))
  2332  00731C  6EF8               	movwf	tblptru,c
  2333  00731E  0100               	movlb	0
  2334  007320  EF6D  F03A         	goto	_main	;jump to C main() function
  2335                           tblptru	equ	0xFF8
  2336                           
  2337                           	psect	bssCOMRAM
  2338  000015                     __pbssCOMRAM:
  2339                           	opt stack 0
  2340  000015                     _ACC:
  2341                           	opt stack 0
  2342  000015                     	ds	1
  2343                           tblptru	equ	0xFF8
  2344                           
  2345                           	psect	cstackCOMRAM
  2346  000001                     __pcstackCOMRAM:
  2347                           	opt stack 0
  2348  000001                     ?___wmul:
  2349                           	opt stack 0
  2350  000001                     Nokia5110_WriteSPI@outputDATA:
  2351                           	opt stack 0
  2352  000001                     ___wmul@multiplier:
  2353                           	opt stack 0
  2354  000001                     delay_ms@n:
  2355                           	opt stack 0
  2356                           
  2357                           ; 4 bytes @ 0x0
  2358  000001                     	ds	1
  2359  000002                     Nokia5110_WriteSPI@BitCount:
  2360                           	opt stack 0
  2361                           
  2362                           ; 1 bytes @ 0x1
  2363  000002                     	ds	1
  2364  000003                     ___wmul@multiplicand:
  2365                           	opt stack 0
  2366                           
  2367                           ; 2 bytes @ 0x2
  2368  000003                     	ds	2
  2369  000005                     ??_delay_ms:
  2370  000005                     ___wmul@product:
  2371                           	opt stack 0
  2372                           
  2373                           ; 2 bytes @ 0x4
  2374  000005                     	ds	2
  2375  000007                     Nokia5110_Write@DATA:
  2376                           	opt stack 0
  2377                           
  2378                           ; 1 bytes @ 0x6
  2379  000007                     	ds	1
  2380  000008                     Nokia5110_Write@MODE:
  2381                           	opt stack 0
  2382                           
  2383                           ; 1 bytes @ 0x7
  2384  000008                     	ds	1
  2385  000009                     ??_Nokia5110_WriteByte:
  2386  000009                     Nokia5110_GotoXY@Y:
  2387                           	opt stack 0
  2388                           
  2389                           ; 1 bytes @ 0x8
  2390  000009                     	ds	1
  2391  00000A                     Nokia5110_GotoXY@X:
  2392                           	opt stack 0
  2393                           
  2394                           ; 1 bytes @ 0x9
  2395  00000A                     	ds	1
  2396  00000B                     Nokia5110_WriteByte@DATA_CHAR:
  2397                           	opt stack 0
  2398  00000B                     Nokia5110_Clear@index:
  2399                           	opt stack 0
  2400  00000B                     Nokia5110_Bitmap@MY_ARRAY:
  2401                           	opt stack 0
  2402                           
  2403                           ; 2 bytes @ 0xA
  2404  00000B                     	ds	1
  2405  00000C                     Nokia5110_WriteByte@index:
  2406                           	opt stack 0
  2407                           
  2408                           ; 2 bytes @ 0xB
  2409  00000C                     	ds	1
  2410  00000D                     Nokia5110_Bitmap@X:
  2411                           	opt stack 0
  2412                           
  2413                           ; 1 bytes @ 0xC
  2414  00000D                     	ds	1
  2415  00000E                     Nokia5110_Bitmap@Y:
  2416                           	opt stack 0
  2417  00000E                     Nokia5110_WriteString@DATA_STRING:
  2418                           	opt stack 0
  2419                           
  2420                           ; 2 bytes @ 0xD
  2421  00000E                     	ds	1
  2422  00000F                     ??_Nokia5110_Bitmap:
  2423                           
  2424                           ; 1 bytes @ 0xE
  2425  00000F                     	ds	1
  2426  000010                     Nokia5110_WriteString@X:
  2427                           	opt stack 0
  2428                           
  2429                           ; 1 bytes @ 0xF
  2430  000010                     	ds	1
  2431  000011                     Nokia5110_WriteString@Y:
  2432                           	opt stack 0
  2433  000011                     Nokia5110_Bitmap@index:
  2434                           	opt stack 0
  2435                           
  2436                           ; 2 bytes @ 0x10
  2437  000011                     	ds	1
  2438  000012                     
  2439                           ; 1 bytes @ 0x11
  2440  000012                     	ds	1
  2441  000013                     Evolution1@i:
  2442                           	opt stack 0
  2443  000013                     Evolution2@i:
  2444                           	opt stack 0
  2445                           
  2446                           ; 2 bytes @ 0x12
  2447  000013                     	ds	2
  2448  000015                     tblptru	equ	0xFF8
  2449                           
  2450                           ; 1 bytes @ 0x14
  2451 ;;
  2452 ;;Main: autosize = 0, tempsize = 0, incstack = 0, save=0
  2453 ;;
  2454 ;; *************** function _main *****************
  2455 ;; Defined at:
  2456 ;;		line 23 in file "main_PokeGotchi.c"
  2457 ;; Parameters:    Size  Location     Type
  2458 ;;		None
  2459 ;; Auto vars:     Size  Location     Type
  2460 ;;		None
  2461 ;; Return value:  Size  Location     Type
  2462 ;;                  1    wreg      void 
  2463 ;; Registers used:
  2464 ;;		wreg, status,2, status,0, tblptrl, tblptrh, tblptru, prodl, prodh, cstack
  2465 ;; Tracked objects:
  2466 ;;		On entry : 0/0
  2467 ;;		On exit  : 0/0
  2468 ;;		Unchanged: 0/0
  2469 ;; Data sizes:     COMRAM   BANK0   BANK1   BANK2   BANK3   BANK4   BANK5   BANK6   BANK7
  2470 ;;      Params:         0       0       0       0       0       0       0       0       0
  2471 ;;      Locals:         0       0       0       0       0       0       0       0       0
  2472 ;;      Temps:          0       0       0       0       0       0       0       0       0
  2473 ;;      Totals:         0       0       0       0       0       0       0       0       0
  2474 ;;Total ram usage:        0 bytes
  2475 ;; Hardware stack levels required when called:    5
  2476 ;; This function calls:
  2477 ;;		_Evolution1
  2478 ;;		_Evolution2
  2479 ;;		_Nokia5110_Bitmap
  2480 ;;		_Nokia5110_Clear
  2481 ;;		_Nokia5110_Init
  2482 ;;		_Nokia5110_WriteString
  2483 ;;		_delay_ms
  2484 ;; This function is called by:
  2485 ;;		Startup code after reset
  2486 ;; This function uses a non-reentrant model
  2487 ;;
  2488                           
  2489                           	psect	text0
  2490  0074DA                     __ptext0:
  2491                           	opt stack 0
  2492  0074DA                     _main:
  2493                           	opt stack 26
  2494                           
  2495                           ;main_PokeGotchi.c: 24: TRISB=0;
  2496                           
  2497                           ;incstack = 0
  2498  0074DA  0E00               	movlw	0
  2499  0074DC  6E93               	movwf	3987,c	;volatile
  2500                           
  2501                           ;main_PokeGotchi.c: 25: Nokia5110_Init();
  2502  0074DE  EC45  F03A         	call	_Nokia5110_Init	;wreg free
  2503                           
  2504                           ;main_PokeGotchi.c: 26: Nokia5110_Clear();
  2505  0074E2  ECD2  F039         	call	_Nokia5110_Clear	;wreg free
  2506                           
  2507                           ;main_PokeGotchi.c: 27: delay_ms(10);
  2508  0074E6  0E0A               	movlw	10
  2509  0074E8  6E01               	movwf	delay_ms@n,c
  2510  0074EA  0E00               	movlw	0
  2511  0074EC  6E02               	movwf	delay_ms@n+1,c
  2512  0074EE  0E00               	movlw	0
  2513  0074F0  6E03               	movwf	delay_ms@n+2,c
  2514  0074F2  0E00               	movlw	0
  2515  0074F4  6E04               	movwf	delay_ms@n+3,c
  2516  0074F6  EC06  F03A         	call	_delay_ms	;wreg free
  2517  0074FA                     l1059:
  2518                           
  2519                           ;main_PokeGotchi.c: 29: Nokia5110_Bitmap(Egg,0,0);
  2520  0074FA  0EF1               	movlw	low _Egg
  2521  0074FC  6E0B               	movwf	Nokia5110_Bitmap@MY_ARRAY,c
  2522  0074FE  0E7D               	movlw	high _Egg
  2523  007500  6E0C               	movwf	Nokia5110_Bitmap@MY_ARRAY+1,c
  2524  007502  0E00               	movlw	0
  2525  007504  6E0D               	movwf	Nokia5110_Bitmap@X,c
  2526  007506  0E00               	movlw	0
  2527  007508  6E0E               	movwf	Nokia5110_Bitmap@Y,c
  2528  00750A  EC21  F03A         	call	_Nokia5110_Bitmap	;wreg free
  2529                           
  2530                           ;main_PokeGotchi.c: 30: Nokia5110_WriteString("Egg",30,5);
  2531  00750E  0EFB               	movlw	low STR_1
  2532  007510  6E0E               	movwf	Nokia5110_WriteString@DATA_STRING,c
  2533  007512  0E7F               	movlw	high STR_1
  2534  007514  6E0F               	movwf	Nokia5110_WriteString@DATA_STRING+1,c
  2535  007516  0E1E               	movlw	30
  2536  007518  6E10               	movwf	Nokia5110_WriteString@X,c
  2537  00751A  0E05               	movlw	5
  2538  00751C  6E11               	movwf	Nokia5110_WriteString@Y,c
  2539  00751E  ECEC  F039         	call	_Nokia5110_WriteString	;wreg free
  2540                           
  2541                           ;main_PokeGotchi.c: 32: ACC++;
  2542  007522  2A15               	incf	_ACC,f,c
  2543                           
  2544                           ;main_PokeGotchi.c: 33: delay_ms(1000);
  2545  007524  0EE8               	movlw	232
  2546  007526  6E01               	movwf	delay_ms@n,c
  2547  007528  0E03               	movlw	3
  2548  00752A  6E02               	movwf	delay_ms@n+1,c
  2549  00752C  0E00               	movlw	0
  2550  00752E  6E03               	movwf	delay_ms@n+2,c
  2551  007530  0E00               	movlw	0
  2552  007532  6E04               	movwf	delay_ms@n+3,c
  2553  007534  EC06  F03A         	call	_delay_ms	;wreg free
  2554                           
  2555                           ;main_PokeGotchi.c: 34: Evolution1();
  2556  007538  ECE0  F03A         	call	_Evolution1	;wreg free
  2557                           
  2558                           ;main_PokeGotchi.c: 36: ACC++;
  2559  00753C  2A15               	incf	_ACC,f,c
  2560                           
  2561                           ;main_PokeGotchi.c: 37: Evolution2();
  2562  00753E  EC3C  F03B         	call	_Evolution2	;wreg free
  2563                           
  2564                           ;main_PokeGotchi.c: 39: ACC++;
  2565  007542  2A15               	incf	_ACC,f,c
  2566  007544  D7DA               	goto	l1059
  2567  007546                     __end_of_main:
  2568                           	opt stack 0
  2569                           tblptru	equ	0xFF8
  2570                           
  2571 ;; *************** function _Nokia5110_Init *****************
  2572 ;; Defined at:
  2573 ;;		line 32 in file "Nokia5110.c"
  2574 ;; Parameters:    Size  Location     Type
  2575 ;;		None
  2576 ;; Auto vars:     Size  Location     Type
  2577 ;;		None
  2578 ;; Return value:  Size  Location     Type
  2579 ;;                  1    wreg      void 
  2580 ;; Registers used:
  2581 ;;		wreg, status,2, status,0, cstack
  2582 ;; Tracked objects:
  2583 ;;		On entry : 0/0
  2584 ;;		On exit  : 0/0
  2585 ;;		Unchanged: 0/0
  2586 ;; Data sizes:     COMRAM   BANK0   BANK1   BANK2   BANK3   BANK4   BANK5   BANK6   BANK7
  2587 ;;      Params:         0       0       0       0       0       0       0       0       0
  2588 ;;      Locals:         0       0       0       0       0       0       0       0       0
  2589 ;;      Temps:          0       0       0       0       0       0       0       0       0
  2590 ;;      Totals:         0       0       0       0       0       0       0       0       0
  2591 ;;Total ram usage:        0 bytes
  2592 ;; Hardware stack levels used:    1
  2593 ;; Hardware stack levels required when called:    2
  2594 ;; This function calls:
  2595 ;;		_Nokia5110_Write
  2596 ;; This function is called by:
  2597 ;;		_main
  2598 ;; This function uses a non-reentrant model
  2599 ;;
  2600                           
  2601                           	psect	text1
  2602  00748A                     __ptext1:
  2603                           	opt stack 0
  2604  00748A                     _Nokia5110_Init:
  2605                           	opt stack 28
  2606                           
  2607                           ;Nokia5110.c: 34: TRISB0=0;
  2608                           
  2609                           ;incstack = 0
  2610  00748A  9093               	bcf	3987,0,c	;volatile
  2611                           
  2612                           ;Nokia5110.c: 35: TRISB1=0;
  2613  00748C  9293               	bcf	3987,1,c	;volatile
  2614                           
  2615                           ;Nokia5110.c: 36: TRISB2=0;
  2616  00748E  9493               	bcf	3987,2,c	;volatile
  2617                           
  2618                           ;Nokia5110.c: 37: TRISB3=0;
  2619  007490  9693               	bcf	3987,3,c	;volatile
  2620                           
  2621                           ;Nokia5110.c: 38: TRISB4=0;
  2622  007492  9893               	bcf	3987,4,c	;volatile
  2623                           
  2624                           ;Nokia5110.c: 39: PORTBbits.RB1=1;
  2625  007494  8281               	bsf	3969,1,c	;volatile
  2626                           
  2627                           ;Nokia5110.c: 41: PORTBbits.RB0=0;
  2628  007496  9081               	bcf	3969,0,c	;volatile
  2629                           
  2630                           ;Nokia5110.c: 42: __nop();
  2631  007498  F000               	nop	
  2632                           
  2633                           ;Nokia5110.c: 43: PORTBbits.RB0=1;
  2634  00749A  8081               	bsf	3969,0,c	;volatile
  2635                           
  2636                           ;Nokia5110.c: 44: Nokia5110_Write(0, 0x21);
  2637  00749C  0E21               	movlw	33
  2638  00749E  6E07               	movwf	Nokia5110_Write@DATA,c
  2639  0074A0  0E00               	movlw	0
  2640  0074A2  EC92  F039         	call	_Nokia5110_Write
  2641                           
  2642                           ;Nokia5110.c: 45: Nokia5110_Write(0, 0xB0);
  2643  0074A6  0EB0               	movlw	176
  2644  0074A8  6E07               	movwf	Nokia5110_Write@DATA,c
  2645  0074AA  0E00               	movlw	0
  2646  0074AC  EC92  F039         	call	_Nokia5110_Write
  2647                           
  2648                           ;Nokia5110.c: 46: Nokia5110_Write(0, 0x04);
  2649  0074B0  0E04               	movlw	4
  2650  0074B2  6E07               	movwf	Nokia5110_Write@DATA,c
  2651  0074B4  0E00               	movlw	0
  2652  0074B6  EC92  F039         	call	_Nokia5110_Write
  2653                           
  2654                           ;Nokia5110.c: 47: Nokia5110_Write(0, 0x14);
  2655  0074BA  0E14               	movlw	20
  2656  0074BC  6E07               	movwf	Nokia5110_Write@DATA,c
  2657  0074BE  0E00               	movlw	0
  2658  0074C0  EC92  F039         	call	_Nokia5110_Write
  2659                           
  2660                           ;Nokia5110.c: 48: Nokia5110_Write(0, 0x20);
  2661  0074C4  0E20               	movlw	32
  2662  0074C6  6E07               	movwf	Nokia5110_Write@DATA,c
  2663  0074C8  0E00               	movlw	0
  2664  0074CA  EC92  F039         	call	_Nokia5110_Write
  2665                           
  2666                           ;Nokia5110.c: 49: Nokia5110_Write(0, 0x0C);
  2667  0074CE  0E0C               	movlw	12
  2668  0074D0  6E07               	movwf	Nokia5110_Write@DATA,c
  2669  0074D2  0E00               	movlw	0
  2670  0074D4  EC92  F039         	call	_Nokia5110_Write
  2671  0074D8  0012               	return		;funcret
  2672  0074DA                     __end_of_Nokia5110_Init:
  2673                           	opt stack 0
  2674                           tblptru	equ	0xFF8
  2675                           
  2676 ;; *************** function _Evolution2 *****************
  2677 ;; Defined at:
  2678 ;;		line 60 in file "main_PokeGotchi.c"
  2679 ;; Parameters:    Size  Location     Type
  2680 ;;		None
  2681 ;; Auto vars:     Size  Location     Type
  2682 ;;  i               2   18[COMRAM] int 
  2683 ;; Return value:  Size  Location     Type
  2684 ;;                  1    wreg      void 
  2685 ;; Registers used:
  2686 ;;		wreg, status,2, status,0, tblptrl, tblptrh, tblptru, prodl, prodh, cstack
  2687 ;; Tracked objects:
  2688 ;;		On entry : 0/0
  2689 ;;		On exit  : 0/0
  2690 ;;		Unchanged: 0/0
  2691 ;; Data sizes:     COMRAM   BANK0   BANK1   BANK2   BANK3   BANK4   BANK5   BANK6   BANK7
  2692 ;;      Params:         0       0       0       0       0       0       0       0       0
  2693 ;;      Locals:         2       0       0       0       0       0       0       0       0
  2694 ;;      Temps:          0       0       0       0       0       0       0       0       0
  2695 ;;      Totals:         2       0       0       0       0       0       0       0       0
  2696 ;;Total ram usage:        2 bytes
  2697 ;; Hardware stack levels used:    1
  2698 ;; Hardware stack levels required when called:    4
  2699 ;; This function calls:
  2700 ;;		_Nokia5110_Bitmap
  2701 ;;		_Nokia5110_Clear
  2702 ;;		_Nokia5110_WriteString
  2703 ;;		_delay_ms
  2704 ;; This function is called by:
  2705 ;;		_main
  2706 ;; This function uses a non-reentrant model
  2707 ;;
  2708                           
  2709                           	psect	text2
  2710  007678                     __ptext2:
  2711                           	opt stack 0
  2712  007678                     _Evolution2:
  2713                           	opt stack 26
  2714                           
  2715                           ;main_PokeGotchi.c: 61: Nokia5110_Clear();
  2716                           
  2717                           ;incstack = 0
  2718  007678  ECD2  F039         	call	_Nokia5110_Clear	;wreg free
  2719                           
  2720                           ;main_PokeGotchi.c: 62: int i;
  2721                           ;main_PokeGotchi.c: 63: for (i = 0; i < 10; i++) {
  2722  00767C  0E00               	movlw	0
  2723  00767E  6E14               	movwf	Evolution2@i+1,c
  2724  007680  0E00               	movlw	0
  2725  007682  6E13               	movwf	Evolution2@i,c
  2726  007684                     l1027:
  2727  007684  BE14               	btfsc	Evolution2@i+1,7,c
  2728  007686  D006               	goto	l1031
  2729  007688  5014               	movf	Evolution2@i+1,w,c
  2730  00768A  E133               	bnz	l1045
  2731  00768C  0E0A               	movlw	10
  2732  00768E  5C13               	subwf	Evolution2@i,w,c
  2733  007690  B0D8               	btfsc	status,0,c
  2734  007692  D02F               	goto	l1045
  2735  007694                     l1031:
  2736                           
  2737                           ;main_PokeGotchi.c: 64: Nokia5110_Bitmap(Drifloon,0,0);
  2738  007694  0EF9               	movlw	low _Drifloon
  2739  007696  6E0B               	movwf	Nokia5110_Bitmap@MY_ARRAY,c
  2740  007698  0E7B               	movlw	high _Drifloon
  2741  00769A  6E0C               	movwf	Nokia5110_Bitmap@MY_ARRAY+1,c
  2742  00769C  0E00               	movlw	0
  2743  00769E  6E0D               	movwf	Nokia5110_Bitmap@X,c
  2744  0076A0  0E00               	movlw	0
  2745  0076A2  6E0E               	movwf	Nokia5110_Bitmap@Y,c
  2746  0076A4  EC21  F03A         	call	_Nokia5110_Bitmap	;wreg free
  2747                           
  2748                           ;main_PokeGotchi.c: 65: delay_ms(100);
  2749  0076A8  0E64               	movlw	100
  2750  0076AA  6E01               	movwf	delay_ms@n,c
  2751  0076AC  0E00               	movlw	0
  2752  0076AE  6E02               	movwf	delay_ms@n+1,c
  2753  0076B0  0E00               	movlw	0
  2754  0076B2  6E03               	movwf	delay_ms@n+2,c
  2755  0076B4  0E00               	movlw	0
  2756  0076B6  6E04               	movwf	delay_ms@n+3,c
  2757  0076B8  EC06  F03A         	call	_delay_ms	;wreg free
  2758                           
  2759                           ;main_PokeGotchi.c: 66: Nokia5110_Clear();
  2760  0076BC  ECD2  F039         	call	_Nokia5110_Clear	;wreg free
  2761                           
  2762                           ;main_PokeGotchi.c: 67: Nokia5110_Bitmap(Drifblim,0,0);
  2763  0076C0  0E01               	movlw	low _Drifblim
  2764  0076C2  6E0B               	movwf	Nokia5110_Bitmap@MY_ARRAY,c
  2765  0076C4  0E7A               	movlw	high _Drifblim
  2766  0076C6  6E0C               	movwf	Nokia5110_Bitmap@MY_ARRAY+1,c
  2767  0076C8  0E00               	movlw	0
  2768  0076CA  6E0D               	movwf	Nokia5110_Bitmap@X,c
  2769  0076CC  0E00               	movlw	0
  2770  0076CE  6E0E               	movwf	Nokia5110_Bitmap@Y,c
  2771  0076D0  EC21  F03A         	call	_Nokia5110_Bitmap	;wreg free
  2772                           
  2773                           ;main_PokeGotchi.c: 68: delay_ms(100);
  2774  0076D4  0E64               	movlw	100
  2775  0076D6  6E01               	movwf	delay_ms@n,c
  2776  0076D8  0E00               	movlw	0
  2777  0076DA  6E02               	movwf	delay_ms@n+1,c
  2778  0076DC  0E00               	movlw	0
  2779  0076DE  6E03               	movwf	delay_ms@n+2,c
  2780  0076E0  0E00               	movlw	0
  2781  0076E2  6E04               	movwf	delay_ms@n+3,c
  2782  0076E4  EC06  F03A         	call	_delay_ms	;wreg free
  2783                           
  2784                           ;main_PokeGotchi.c: 69: Nokia5110_Clear();
  2785  0076E8  ECD2  F039         	call	_Nokia5110_Clear	;wreg free
  2786  0076EC  4A13               	infsnz	Evolution2@i,f,c
  2787  0076EE  2A14               	incf	Evolution2@i+1,f,c
  2788  0076F0  D7C9               	goto	l1027
  2789  0076F2                     l1045:
  2790                           
  2791                           ;main_PokeGotchi.c: 70: }
  2792                           ;main_PokeGotchi.c: 71: Nokia5110_Bitmap(Drifblim,0,0);
  2793  0076F2  0E01               	movlw	low _Drifblim
  2794  0076F4  6E0B               	movwf	Nokia5110_Bitmap@MY_ARRAY,c
  2795  0076F6  0E7A               	movlw	high _Drifblim
  2796  0076F8  6E0C               	movwf	Nokia5110_Bitmap@MY_ARRAY+1,c
  2797  0076FA  0E00               	movlw	0
  2798  0076FC  6E0D               	movwf	Nokia5110_Bitmap@X,c
  2799  0076FE  0E00               	movlw	0
  2800  007700  6E0E               	movwf	Nokia5110_Bitmap@Y,c
  2801  007702  EC21  F03A         	call	_Nokia5110_Bitmap	;wreg free
  2802                           
  2803                           ;main_PokeGotchi.c: 72: Nokia5110_WriteString("Drifblim",10,5);
  2804  007706  0EE9               	movlw	low STR_3
  2805  007708  6E0E               	movwf	Nokia5110_WriteString@DATA_STRING,c
  2806  00770A  0E7F               	movlw	high STR_3
  2807  00770C  6E0F               	movwf	Nokia5110_WriteString@DATA_STRING+1,c
  2808  00770E  0E0A               	movlw	10
  2809  007710  6E10               	movwf	Nokia5110_WriteString@X,c
  2810  007712  0E05               	movlw	5
  2811  007714  6E11               	movwf	Nokia5110_WriteString@Y,c
  2812  007716  ECEC  F039         	call	_Nokia5110_WriteString	;wreg free
  2813                           
  2814                           ;main_PokeGotchi.c: 73: delay_ms(1000);
  2815  00771A  0EE8               	movlw	232
  2816  00771C  6E01               	movwf	delay_ms@n,c
  2817  00771E  0E03               	movlw	3
  2818  007720  6E02               	movwf	delay_ms@n+1,c
  2819  007722  0E00               	movlw	0
  2820  007724  6E03               	movwf	delay_ms@n+2,c
  2821  007726  0E00               	movlw	0
  2822  007728  6E04               	movwf	delay_ms@n+3,c
  2823  00772A  EC06  F03A         	call	_delay_ms	;wreg free
  2824  00772E  0012               	return		;funcret
  2825  007730                     __end_of_Evolution2:
  2826                           	opt stack 0
  2827                           tblptru	equ	0xFF8
  2828                           status	equ	0xFD8
  2829                           
  2830 ;; *************** function _Evolution1 *****************
  2831 ;; Defined at:
  2832 ;;		line 44 in file "main_PokeGotchi.c"
  2833 ;; Parameters:    Size  Location     Type
  2834 ;;		None
  2835 ;; Auto vars:     Size  Location     Type
  2836 ;;  i               2   18[COMRAM] int 
  2837 ;; Return value:  Size  Location     Type
  2838 ;;                  1    wreg      void 
  2839 ;; Registers used:
  2840 ;;		wreg, status,2, status,0, tblptrl, tblptrh, tblptru, prodl, prodh, cstack
  2841 ;; Tracked objects:
  2842 ;;		On entry : 0/0
  2843 ;;		On exit  : 0/0
  2844 ;;		Unchanged: 0/0
  2845 ;; Data sizes:     COMRAM   BANK0   BANK1   BANK2   BANK3   BANK4   BANK5   BANK6   BANK7
  2846 ;;      Params:         0       0       0       0       0       0       0       0       0
  2847 ;;      Locals:         2       0       0       0       0       0       0       0       0
  2848 ;;      Temps:          0       0       0       0       0       0       0       0       0
  2849 ;;      Totals:         2       0       0       0       0       0       0       0       0
  2850 ;;Total ram usage:        2 bytes
  2851 ;; Hardware stack levels used:    1
  2852 ;; Hardware stack levels required when called:    4
  2853 ;; This function calls:
  2854 ;;		_Nokia5110_Bitmap
  2855 ;;		_Nokia5110_Clear
  2856 ;;		_Nokia5110_WriteString
  2857 ;;		_delay_ms
  2858 ;; This function is called by:
  2859 ;;		_main
  2860 ;; This function uses a non-reentrant model
  2861 ;;
  2862                           
  2863                           	psect	text3
  2864  0075C0                     __ptext3:
  2865                           	opt stack 0
  2866  0075C0                     _Evolution1:
  2867                           	opt stack 26
  2868                           
  2869                           ;main_PokeGotchi.c: 45: Nokia5110_Clear();
  2870                           
  2871                           ;incstack = 0
  2872  0075C0  ECD2  F039         	call	_Nokia5110_Clear	;wreg free
  2873                           
  2874                           ;main_PokeGotchi.c: 46: int i;
  2875                           ;main_PokeGotchi.c: 47: for (i = 0; i < 10; i++) {
  2876  0075C4  0E00               	movlw	0
  2877  0075C6  6E14               	movwf	Evolution1@i+1,c
  2878  0075C8  0E00               	movlw	0
  2879  0075CA  6E13               	movwf	Evolution1@i,c
  2880  0075CC                     l999:
  2881  0075CC  BE14               	btfsc	Evolution1@i+1,7,c
  2882  0075CE  D006               	goto	l1003
  2883  0075D0  5014               	movf	Evolution1@i+1,w,c
  2884  0075D2  E133               	bnz	l1017
  2885  0075D4  0E0A               	movlw	10
  2886  0075D6  5C13               	subwf	Evolution1@i,w,c
  2887  0075D8  B0D8               	btfsc	status,0,c
  2888  0075DA  D02F               	goto	l1017
  2889  0075DC                     l1003:
  2890                           
  2891                           ;main_PokeGotchi.c: 48: Nokia5110_Bitmap(Egg,0,0);
  2892  0075DC  0EF1               	movlw	low _Egg
  2893  0075DE  6E0B               	movwf	Nokia5110_Bitmap@MY_ARRAY,c
  2894  0075E0  0E7D               	movlw	high _Egg
  2895  0075E2  6E0C               	movwf	Nokia5110_Bitmap@MY_ARRAY+1,c
  2896  0075E4  0E00               	movlw	0
  2897  0075E6  6E0D               	movwf	Nokia5110_Bitmap@X,c
  2898  0075E8  0E00               	movlw	0
  2899  0075EA  6E0E               	movwf	Nokia5110_Bitmap@Y,c
  2900  0075EC  EC21  F03A         	call	_Nokia5110_Bitmap	;wreg free
  2901                           
  2902                           ;main_PokeGotchi.c: 49: delay_ms(100);
  2903  0075F0  0E64               	movlw	100
  2904  0075F2  6E01               	movwf	delay_ms@n,c
  2905  0075F4  0E00               	movlw	0
  2906  0075F6  6E02               	movwf	delay_ms@n+1,c
  2907  0075F8  0E00               	movlw	0
  2908  0075FA  6E03               	movwf	delay_ms@n+2,c
  2909  0075FC  0E00               	movlw	0
  2910  0075FE  6E04               	movwf	delay_ms@n+3,c
  2911  007600  EC06  F03A         	call	_delay_ms	;wreg free
  2912                           
  2913                           ;main_PokeGotchi.c: 50: Nokia5110_Clear();
  2914  007604  ECD2  F039         	call	_Nokia5110_Clear	;wreg free
  2915                           
  2916                           ;main_PokeGotchi.c: 51: Nokia5110_Bitmap(Drifloon,0,0);
  2917  007608  0EF9               	movlw	low _Drifloon
  2918  00760A  6E0B               	movwf	Nokia5110_Bitmap@MY_ARRAY,c
  2919  00760C  0E7B               	movlw	high _Drifloon
  2920  00760E  6E0C               	movwf	Nokia5110_Bitmap@MY_ARRAY+1,c
  2921  007610  0E00               	movlw	0
  2922  007612  6E0D               	movwf	Nokia5110_Bitmap@X,c
  2923  007614  0E00               	movlw	0
  2924  007616  6E0E               	movwf	Nokia5110_Bitmap@Y,c
  2925  007618  EC21  F03A         	call	_Nokia5110_Bitmap	;wreg free
  2926                           
  2927                           ;main_PokeGotchi.c: 52: delay_ms(100);
  2928  00761C  0E64               	movlw	100
  2929  00761E  6E01               	movwf	delay_ms@n,c
  2930  007620  0E00               	movlw	0
  2931  007622  6E02               	movwf	delay_ms@n+1,c
  2932  007624  0E00               	movlw	0
  2933  007626  6E03               	movwf	delay_ms@n+2,c
  2934  007628  0E00               	movlw	0
  2935  00762A  6E04               	movwf	delay_ms@n+3,c
  2936  00762C  EC06  F03A         	call	_delay_ms	;wreg free
  2937                           
  2938                           ;main_PokeGotchi.c: 53: Nokia5110_Clear();
  2939  007630  ECD2  F039         	call	_Nokia5110_Clear	;wreg free
  2940  007634  4A13               	infsnz	Evolution1@i,f,c
  2941  007636  2A14               	incf	Evolution1@i+1,f,c
  2942  007638  D7C9               	goto	l999
  2943  00763A                     l1017:
  2944                           
  2945                           ;main_PokeGotchi.c: 54: }
  2946                           ;main_PokeGotchi.c: 55: Nokia5110_Bitmap(Drifloon,0,0);
  2947  00763A  0EF9               	movlw	low _Drifloon
  2948  00763C  6E0B               	movwf	Nokia5110_Bitmap@MY_ARRAY,c
  2949  00763E  0E7B               	movlw	high _Drifloon
  2950  007640  6E0C               	movwf	Nokia5110_Bitmap@MY_ARRAY+1,c
  2951  007642  0E00               	movlw	0
  2952  007644  6E0D               	movwf	Nokia5110_Bitmap@X,c
  2953  007646  0E00               	movlw	0
  2954  007648  6E0E               	movwf	Nokia5110_Bitmap@Y,c
  2955  00764A  EC21  F03A         	call	_Nokia5110_Bitmap	;wreg free
  2956                           
  2957                           ;main_PokeGotchi.c: 56: Nokia5110_WriteString("Drifloon",10,5);
  2958  00764E  0EF2               	movlw	low STR_2
  2959  007650  6E0E               	movwf	Nokia5110_WriteString@DATA_STRING,c
  2960  007652  0E7F               	movlw	high STR_2
  2961  007654  6E0F               	movwf	Nokia5110_WriteString@DATA_STRING+1,c
  2962  007656  0E0A               	movlw	10
  2963  007658  6E10               	movwf	Nokia5110_WriteString@X,c
  2964  00765A  0E05               	movlw	5
  2965  00765C  6E11               	movwf	Nokia5110_WriteString@Y,c
  2966  00765E  ECEC  F039         	call	_Nokia5110_WriteString	;wreg free
  2967                           
  2968                           ;main_PokeGotchi.c: 57: delay_ms(1000);
  2969  007662  0EE8               	movlw	232
  2970  007664  6E01               	movwf	delay_ms@n,c
  2971  007666  0E03               	movlw	3
  2972  007668  6E02               	movwf	delay_ms@n+1,c
  2973  00766A  0E00               	movlw	0
  2974  00766C  6E03               	movwf	delay_ms@n+2,c
  2975  00766E  0E00               	movlw	0
  2976  007670  6E04               	movwf	delay_ms@n+3,c
  2977  007672  EC06  F03A         	call	_delay_ms	;wreg free
  2978  007676  0012               	return		;funcret
  2979  007678                     __end_of_Evolution1:
  2980                           	opt stack 0
  2981                           tblptru	equ	0xFF8
  2982                           status	equ	0xFD8
  2983                           
  2984 ;; *************** function _delay_ms *****************
  2985 ;; Defined at:
  2986 ;;		line 146 in file "Alteri.h"
  2987 ;; Parameters:    Size  Location     Type
  2988 ;;  n               4    0[COMRAM] long 
  2989 ;; Auto vars:     Size  Location     Type
  2990 ;;		None
  2991 ;; Return value:  Size  Location     Type
  2992 ;;                  1    wreg      void 
  2993 ;; Registers used:
  2994 ;;		wreg, status,2, status,0
  2995 ;; Tracked objects:
  2996 ;;		On entry : 0/0
  2997 ;;		On exit  : 0/0
  2998 ;;		Unchanged: 0/0
  2999 ;; Data sizes:     COMRAM   BANK0   BANK1   BANK2   BANK3   BANK4   BANK5   BANK6   BANK7
  3000 ;;      Params:         4       0       0       0       0       0       0       0       0
  3001 ;;      Locals:         0       0       0       0       0       0       0       0       0
  3002 ;;      Temps:          1       0       0       0       0       0       0       0       0
  3003 ;;      Totals:         5       0       0       0       0       0       0       0       0
  3004 ;;Total ram usage:        5 bytes
  3005 ;; Hardware stack levels used:    1
  3006 ;; This function calls:
  3007 ;;		Nothing
  3008 ;; This function is called by:
  3009 ;;		_main
  3010 ;;		_Evolution1
  3011 ;;		_Evolution2
  3012 ;; This function uses a non-reentrant model
  3013 ;;
  3014                           
  3015                           	psect	text4
  3016  00740C                     __ptext4:
  3017                           	opt stack 0
  3018  00740C                     _delay_ms:
  3019                           	opt stack 30
  3020                           
  3021                           ;Alteri.h: 148: while(n-- !=0){
  3022                           
  3023                           ;incstack = 0
  3024  00740C  D008               	goto	l989
  3025  00740E                     l987:
  3026                           
  3027                           ;Alteri.h: 149: _delay((unsigned long)((1)*(48000000/4000.0)));
  3028  00740E  0E10               	movlw	16
  3029  007410  6E05               	movwf	??_delay_ms& (0+255),c
  3030  007412  0E94               	movlw	148
  3031  007414                     u327:
  3032  007414  2EE8               	decfsz	wreg,f,c
  3033  007416  D7FE               	goto	u327
  3034  007418  2E05               	decfsz	??_delay_ms& (0+255),f,c
  3035  00741A  D7FC               	goto	u327
  3036  00741C  D000               	nop2	
  3037  00741E                     l989:
  3038  00741E  0EFF               	movlw	255
  3039  007420  2601               	addwf	delay_ms@n,f,c
  3040  007422  0EFF               	movlw	255
  3041  007424  2202               	addwfc	delay_ms@n+1,f,c
  3042  007426  0EFF               	movlw	255
  3043  007428  2203               	addwfc	delay_ms@n+2,f,c
  3044  00742A  0EFF               	movlw	255
  3045  00742C  2204               	addwfc	delay_ms@n+3,f,c
  3046  00742E  2801               	incf	delay_ms@n,w,c
  3047  007430  E1EE               	bnz	l987
  3048  007432  2802               	incf	delay_ms@n+1,w,c
  3049  007434  E1EC               	bnz	l987
  3050  007436  2803               	incf	delay_ms@n+2,w,c
  3051  007438  E1EA               	bnz	l987
  3052  00743A  2804               	incf	delay_ms@n+3,w,c
  3053  00743C  B4D8               	btfsc	status,2,c
  3054  00743E  0012               	return	
  3055  007440  D7E6               	goto	l987
  3056  007442                     __end_of_delay_ms:
  3057                           	opt stack 0
  3058                           tblptru	equ	0xFF8
  3059                           wreg	equ	0xFE8
  3060                           status	equ	0xFD8
  3061                           
  3062 ;; *************** function _Nokia5110_WriteString *****************
  3063 ;; Defined at:
  3064 ;;		line 106 in file "Nokia5110.c"
  3065 ;; Parameters:    Size  Location     Type
  3066 ;;  DATA_STRING     2   13[COMRAM] PTR unsigned char 
  3067 ;;		 -> STR_3(9), STR_2(9), STR_1(4), 
  3068 ;;  X               1   15[COMRAM] unsigned char 
  3069 ;;  Y               1   16[COMRAM] unsigned char 
  3070 ;; Auto vars:     Size  Location     Type
  3071 ;;		None
  3072 ;; Return value:  Size  Location     Type
  3073 ;;                  1    wreg      void 
  3074 ;; Registers used:
  3075 ;;		wreg, status,2, status,0, tblptrl, tblptrh, tblptru, prodl, prodh, cstack
  3076 ;; Tracked objects:
  3077 ;;		On entry : 0/0
  3078 ;;		On exit  : 0/0
  3079 ;;		Unchanged: 0/0
  3080 ;; Data sizes:     COMRAM   BANK0   BANK1   BANK2   BANK3   BANK4   BANK5   BANK6   BANK7
  3081 ;;      Params:         4       0       0       0       0       0       0       0       0
  3082 ;;      Locals:         0       0       0       0       0       0       0       0       0
  3083 ;;      Temps:          0       0       0       0       0       0       0       0       0
  3084 ;;      Totals:         4       0       0       0       0       0       0       0       0
  3085 ;;Total ram usage:        4 bytes
  3086 ;; Hardware stack levels used:    1
  3087 ;; Hardware stack levels required when called:    3
  3088 ;; This function calls:
  3089 ;;		_Nokia5110_GotoXY
  3090 ;;		_Nokia5110_WriteByte
  3091 ;; This function is called by:
  3092 ;;		_main
  3093 ;;		_Evolution1
  3094 ;;		_Evolution2
  3095 ;; This function uses a non-reentrant model
  3096 ;;
  3097                           
  3098                           	psect	text5
  3099  0073D8                     __ptext5:
  3100                           	opt stack 0
  3101  0073D8                     _Nokia5110_WriteString:
  3102                           	opt stack 27
  3103                           
  3104                           ;Nokia5110.c: 107: Nokia5110_GotoXY(X, Y);
  3105                           
  3106                           ;incstack = 0
  3107  0073D8  C011  F009         	movff	Nokia5110_WriteString@Y,Nokia5110_GotoXY@Y
  3108  0073DC  5010               	movf	Nokia5110_WriteString@X,w,c
  3109  0073DE  EC9E  F039         	call	_Nokia5110_GotoXY
  3110                           
  3111                           ;Nokia5110.c: 108: while (*DATA_STRING)
  3112  0073E2  D00A               	goto	l969
  3113  0073E4                     l965:
  3114                           
  3115                           ;Nokia5110.c: 109: Nokia5110_WriteByte(*DATA_STRING++);
  3116  0073E4  C00E  FFF6         	movff	Nokia5110_WriteString@DATA_STRING,tblptrl
  3117  0073E8  C00F  FFF7         	movff	Nokia5110_WriteString@DATA_STRING+1,tblptrh
  3118  0073EC                     	if	0	;tblptru may be non-zero
  3119  0073EC                     	endif
  3120  0073EC                     	if	0	;tblptru may be non-zero
  3121  0073EC                     	endif
  3122  0073EC  0008               	tblrd		*
  3123  0073EE  50F5               	movf	tablat,w,c
  3124  0073F0  ECA3  F03A         	call	_Nokia5110_WriteByte
  3125  0073F4  4A0E               	infsnz	Nokia5110_WriteString@DATA_STRING,f,c
  3126  0073F6  2A0F               	incf	Nokia5110_WriteString@DATA_STRING+1,f,c
  3127  0073F8                     l969:
  3128  0073F8  C00E  FFF6         	movff	Nokia5110_WriteString@DATA_STRING,tblptrl
  3129  0073FC  C00F  FFF7         	movff	Nokia5110_WriteString@DATA_STRING+1,tblptrh
  3130  007400                     	if	0	;tblptru may be non-zero
  3131  007400                     	endif
  3132  007400                     	if	0	;tblptru may be non-zero
  3133  007400                     	endif
  3134  007400  0008               	tblrd		*
  3135  007402  50F5               	movf	tablat,w,c
  3136  007404  0900               	iorlw	0
  3137  007406  B4D8               	btfsc	status,2,c
  3138  007408  0012               	return	
  3139  00740A  D7EC               	goto	l965
  3140  00740C                     __end_of_Nokia5110_WriteString:
  3141                           	opt stack 0
  3142                           tblptru	equ	0xFF8
  3143                           tblptrh	equ	0xFF7
  3144                           tblptrl	equ	0xFF6
  3145                           tablat	equ	0xFF5
  3146                           wreg	equ	0xFE8
  3147                           status	equ	0xFD8
  3148                           
  3149 ;; *************** function _Nokia5110_WriteByte *****************
  3150 ;; Defined at:
  3151 ;;		line 90 in file "Nokia5110.c"
  3152 ;; Parameters:    Size  Location     Type
  3153 ;;  DATA_CHAR       1    wreg     unsigned char 
  3154 ;; Auto vars:     Size  Location     Type
  3155 ;;  DATA_CHAR       1   10[COMRAM] unsigned char 
  3156 ;;  index           2   11[COMRAM] int 
  3157 ;; Return value:  Size  Location     Type
  3158 ;;                  1    wreg      void 
  3159 ;; Registers used:
  3160 ;;		wreg, status,2, status,0, tblptrl, tblptrh, tblptru, prodl, prodh, cstack
  3161 ;; Tracked objects:
  3162 ;;		On entry : 0/0
  3163 ;;		On exit  : 0/0
  3164 ;;		Unchanged: 0/0
  3165 ;; Data sizes:     COMRAM   BANK0   BANK1   BANK2   BANK3   BANK4   BANK5   BANK6   BANK7
  3166 ;;      Params:         0       0       0       0       0       0       0       0       0
  3167 ;;      Locals:         3       0       0       0       0       0       0       0       0
  3168 ;;      Temps:          2       0       0       0       0       0       0       0       0
  3169 ;;      Totals:         5       0       0       0       0       0       0       0       0
  3170 ;;Total ram usage:        5 bytes
  3171 ;; Hardware stack levels used:    1
  3172 ;; Hardware stack levels required when called:    2
  3173 ;; This function calls:
  3174 ;;		_Nokia5110_Write
  3175 ;;		___wmul
  3176 ;; This function is called by:
  3177 ;;		_Nokia5110_WriteString
  3178 ;;		_GiveFood
  3179 ;; This function uses a non-reentrant model
  3180 ;;
  3181                           
  3182                           	psect	text6
  3183  007546                     __ptext6:
  3184                           	opt stack 0
  3185  007546                     _Nokia5110_WriteByte:
  3186                           	opt stack 27
  3187                           
  3188                           ;incstack = 0
  3189                           ;Nokia5110_WriteByte@DATA_CHAR stored from wreg
  3190  007546  6E0B               	movwf	Nokia5110_WriteByte@DATA_CHAR,c
  3191                           
  3192                           ;Nokia5110.c: 91: Nokia5110_Write(1, 0x00);
  3193  007548  0E00               	movlw	0
  3194  00754A  6E07               	movwf	Nokia5110_Write@DATA,c
  3195  00754C  0E01               	movlw	1
  3196  00754E  EC92  F039         	call	_Nokia5110_Write
  3197                           
  3198                           ;Nokia5110.c: 92: for (int index = 0 ; index < 5 ; index++)
  3199  007552  0E00               	movlw	0
  3200  007554  6E0D               	movwf	Nokia5110_WriteByte@index+1,c
  3201  007556  0E00               	movlw	0
  3202  007558  6E0C               	movwf	Nokia5110_WriteByte@index,c
  3203  00755A                     l937:
  3204  00755A  BE0D               	btfsc	Nokia5110_WriteByte@index+1,7,c
  3205  00755C  D006               	goto	l941
  3206  00755E  500D               	movf	Nokia5110_WriteByte@index+1,w,c
  3207  007560  E129               	bnz	l947
  3208  007562  0E05               	movlw	5
  3209  007564  5C0C               	subwf	Nokia5110_WriteByte@index,w,c
  3210  007566  B0D8               	btfsc	status,0,c
  3211  007568  D025               	goto	l947
  3212  00756A                     l941:
  3213                           
  3214                           ;Nokia5110.c: 93: Nokia5110_Write(1, FONT_1[DATA_CHAR - 0x20][index]);
  3215  00756A  0EE0               	movlw	224
  3216  00756C  240B               	addwf	Nokia5110_WriteByte@DATA_CHAR,w,c
  3217  00756E  6E01               	movwf	___wmul@multiplier,c
  3218  007570  6A02               	clrf	___wmul@multiplier+1,c
  3219  007572  0EFF               	movlw	255
  3220  007574  2202               	addwfc	___wmul@multiplier+1,f,c
  3221  007576  0E00               	movlw	0
  3222  007578  6E04               	movwf	___wmul@multiplicand+1,c
  3223  00757A  0E05               	movlw	5
  3224  00757C  6E03               	movwf	___wmul@multiplicand,c
  3225  00757E  ECBF  F039         	call	___wmul	;wreg free
  3226  007582  0E31               	movlw	low _FONT_1
  3227  007584  6E09               	movwf	??_Nokia5110_WriteByte& (0+255),c
  3228  007586  0E77               	movlw	high _FONT_1
  3229  007588  6E0A               	movwf	(??_Nokia5110_WriteByte+1)& (0+255),c
  3230  00758A  5001               	movf	?___wmul,w,c
  3231  00758C  2609               	addwf	??_Nokia5110_WriteByte,f,c
  3232  00758E  5002               	movf	?___wmul+1,w,c
  3233  007590  220A               	addwfc	??_Nokia5110_WriteByte+1,f,c
  3234  007592  500C               	movf	Nokia5110_WriteByte@index,w,c
  3235  007594  2609               	addwf	??_Nokia5110_WriteByte,f,c
  3236  007596  500D               	movf	Nokia5110_WriteByte@index+1,w,c
  3237  007598  220A               	addwfc	??_Nokia5110_WriteByte+1,f,c
  3238  00759A  C009  FFF6         	movff	??_Nokia5110_WriteByte,tblptrl
  3239  00759E  C00A  FFF7         	movff	??_Nokia5110_WriteByte+1,tblptrh
  3240  0075A2                     	if	0	;tblptru may be non-zero
  3241  0075A2                     	endif
  3242  0075A2                     	if	0	;tblptru may be non-zero
  3243  0075A2                     	endif
  3244  0075A2  0008               	tblrd		*
  3245  0075A4  CFF5 F007          	movff	tablat,Nokia5110_Write@DATA
  3246  0075A8  0E01               	movlw	1
  3247  0075AA  EC92  F039         	call	_Nokia5110_Write
  3248  0075AE  4A0C               	infsnz	Nokia5110_WriteByte@index,f,c
  3249  0075B0  2A0D               	incf	Nokia5110_WriteByte@index+1,f,c
  3250  0075B2  D7D3               	goto	l937
  3251  0075B4                     l947:
  3252                           
  3253                           ;Nokia5110.c: 95: Nokia5110_Write(1, 0x00);
  3254  0075B4  0E00               	movlw	0
  3255  0075B6  6E07               	movwf	Nokia5110_Write@DATA,c
  3256  0075B8  0E01               	movlw	1
  3257  0075BA  EC92  F039         	call	_Nokia5110_Write
  3258  0075BE  0012               	return		;funcret
  3259  0075C0                     __end_of_Nokia5110_WriteByte:
  3260                           	opt stack 0
  3261                           tblptru	equ	0xFF8
  3262                           tblptrh	equ	0xFF7
  3263                           tblptrl	equ	0xFF6
  3264                           tablat	equ	0xFF5
  3265                           wreg	equ	0xFE8
  3266                           status	equ	0xFD8
  3267                           
  3268 ;; *************** function ___wmul *****************
  3269 ;; Defined at:
  3270 ;;		line 15 in file "C:\Program Files\Microchip\xc8\v1.37\sources\common\Umul16.c"
  3271 ;; Parameters:    Size  Location     Type
  3272 ;;  multiplier      2    0[COMRAM] unsigned int 
  3273 ;;  multiplicand    2    2[COMRAM] unsigned int 
  3274 ;; Auto vars:     Size  Location     Type
  3275 ;;  product         2    4[COMRAM] unsigned int 
  3276 ;; Return value:  Size  Location     Type
  3277 ;;                  2    0[COMRAM] unsigned int 
  3278 ;; Registers used:
  3279 ;;		wreg, status,2, status,0, prodl, prodh
  3280 ;; Tracked objects:
  3281 ;;		On entry : 0/0
  3282 ;;		On exit  : 0/0
  3283 ;;		Unchanged: 0/0
  3284 ;; Data sizes:     COMRAM   BANK0   BANK1   BANK2   BANK3   BANK4   BANK5   BANK6   BANK7
  3285 ;;      Params:         4       0       0       0       0       0       0       0       0
  3286 ;;      Locals:         2       0       0       0       0       0       0       0       0
  3287 ;;      Temps:          0       0       0       0       0       0       0       0       0
  3288 ;;      Totals:         6       0       0       0       0       0       0       0       0
  3289 ;;Total ram usage:        6 bytes
  3290 ;; Hardware stack levels used:    1
  3291 ;; This function calls:
  3292 ;;		Nothing
  3293 ;; This function is called by:
  3294 ;;		_Nokia5110_WriteByte
  3295 ;; This function uses a non-reentrant model
  3296 ;;
  3297                           
  3298                           	psect	text7
  3299  00737E                     __ptext7:
  3300                           	opt stack 0
  3301  00737E                     ___wmul:
  3302                           	opt stack 28
  3303                           
  3304                           ;incstack = 0
  3305  00737E  5001               	movf	___wmul@multiplier,w,c
  3306  007380  0203               	mulwf	___wmul@multiplicand,c
  3307  007382  CFF3 F005          	movff	prodl,___wmul@product
  3308  007386  CFF4 F006          	movff	prodh,___wmul@product+1
  3309  00738A  5001               	movf	___wmul@multiplier,w,c
  3310  00738C  0204               	mulwf	___wmul@multiplicand+1,c
  3311  00738E  50F3               	movf	prodl,w,c
  3312  007390  2606               	addwf	___wmul@product+1,f,c
  3313  007392  5002               	movf	___wmul@multiplier+1,w,c
  3314  007394  0203               	mulwf	___wmul@multiplicand,c
  3315  007396  50F3               	movf	prodl,w,c
  3316  007398  2606               	addwf	___wmul@product+1,f,c
  3317  00739A  C005  F001         	movff	___wmul@product,?___wmul
  3318  00739E  C006  F002         	movff	___wmul@product+1,?___wmul+1
  3319  0073A2  0012               	return	
  3320  0073A4                     __end_of___wmul:
  3321                           	opt stack 0
  3322                           tblptru	equ	0xFF8
  3323                           tblptrh	equ	0xFF7
  3324                           tblptrl	equ	0xFF6
  3325                           tablat	equ	0xFF5
  3326                           prodh	equ	0xFF4
  3327                           prodl	equ	0xFF3
  3328                           wreg	equ	0xFE8
  3329                           status	equ	0xFD8
  3330                           
  3331 ;; *************** function _Nokia5110_Clear *****************
  3332 ;; Defined at:
  3333 ;;		line 60 in file "Nokia5110.c"
  3334 ;; Parameters:    Size  Location     Type
  3335 ;;		None
  3336 ;; Auto vars:     Size  Location     Type
  3337 ;;  index           2   10[COMRAM] int 
  3338 ;; Return value:  Size  Location     Type
  3339 ;;                  1    wreg      void 
  3340 ;; Registers used:
  3341 ;;		wreg, status,2, status,0, cstack
  3342 ;; Tracked objects:
  3343 ;;		On entry : 0/0
  3344 ;;		On exit  : 0/0
  3345 ;;		Unchanged: 0/0
  3346 ;; Data sizes:     COMRAM   BANK0   BANK1   BANK2   BANK3   BANK4   BANK5   BANK6   BANK7
  3347 ;;      Params:         0       0       0       0       0       0       0       0       0
  3348 ;;      Locals:         2       0       0       0       0       0       0       0       0
  3349 ;;      Temps:          0       0       0       0       0       0       0       0       0
  3350 ;;      Totals:         2       0       0       0       0       0       0       0       0
  3351 ;;Total ram usage:        2 bytes
  3352 ;; Hardware stack levels used:    1
  3353 ;; Hardware stack levels required when called:    3
  3354 ;; This function calls:
  3355 ;;		_Nokia5110_GotoXY
  3356 ;;		_Nokia5110_Write
  3357 ;; This function is called by:
  3358 ;;		_main
  3359 ;;		_Evolution1
  3360 ;;		_Evolution2
  3361 ;; This function uses a non-reentrant model
  3362 ;;
  3363                           
  3364                           	psect	text8
  3365  0073A4                     __ptext8:
  3366                           	opt stack 0
  3367  0073A4                     _Nokia5110_Clear:
  3368                           	opt stack 27
  3369                           
  3370                           ;Nokia5110.c: 61: for (int index = 0 ; index < (84 * 48 / 8) ; index++)
  3371                           
  3372                           ;incstack = 0
  3373  0073A4  0E00               	movlw	0
  3374  0073A6  6E0C               	movwf	Nokia5110_Clear@index+1,c
  3375  0073A8  0E00               	movlw	0
  3376  0073AA  6E0B               	movwf	Nokia5110_Clear@index,c
  3377  0073AC                     l951:
  3378  0073AC  BE0C               	btfsc	Nokia5110_Clear@index+1,7,c
  3379  0073AE  D006               	goto	l955
  3380  0073B0  0EF8               	movlw	248
  3381  0073B2  5C0B               	subwf	Nokia5110_Clear@index,w,c
  3382  0073B4  0E01               	movlw	1
  3383  0073B6  580C               	subwfb	Nokia5110_Clear@index+1,w,c
  3384  0073B8  B0D8               	btfsc	status,0,c
  3385  0073BA  D008               	goto	l961
  3386  0073BC                     l955:
  3387                           
  3388                           ;Nokia5110.c: 62: Nokia5110_Write(1, 0x00);
  3389  0073BC  0E00               	movlw	0
  3390  0073BE  6E07               	movwf	Nokia5110_Write@DATA,c
  3391  0073C0  0E01               	movlw	1
  3392  0073C2  EC92  F039         	call	_Nokia5110_Write
  3393  0073C6  4A0B               	infsnz	Nokia5110_Clear@index,f,c
  3394  0073C8  2A0C               	incf	Nokia5110_Clear@index+1,f,c
  3395  0073CA  D7F0               	goto	l951
  3396  0073CC                     l961:
  3397                           
  3398                           ;Nokia5110.c: 63: Nokia5110_GotoXY(0, 0);
  3399  0073CC  0E00               	movlw	0
  3400  0073CE  6E09               	movwf	Nokia5110_GotoXY@Y,c
  3401  0073D0  0E00               	movlw	0
  3402  0073D2  EC9E  F039         	call	_Nokia5110_GotoXY
  3403  0073D6  0012               	return		;funcret
  3404  0073D8                     __end_of_Nokia5110_Clear:
  3405                           	opt stack 0
  3406                           tblptru	equ	0xFF8
  3407                           tblptrh	equ	0xFF7
  3408                           tblptrl	equ	0xFF6
  3409                           tablat	equ	0xFF5
  3410                           prodh	equ	0xFF4
  3411                           prodl	equ	0xFF3
  3412                           wreg	equ	0xFE8
  3413                           status	equ	0xFD8
  3414                           
  3415 ;; *************** function _Nokia5110_Bitmap *****************
  3416 ;; Defined at:
  3417 ;;		line 120 in file "Nokia5110.c"
  3418 ;; Parameters:    Size  Location     Type
  3419 ;;  MY_ARRAY        2   10[COMRAM] PTR unsigned char 
  3420 ;;		 -> Drifblim(504), Drifloon(504), Egg(504), 
  3421 ;;  X               1   12[COMRAM] unsigned char 
  3422 ;;  Y               1   13[COMRAM] unsigned char 
  3423 ;; Auto vars:     Size  Location     Type
  3424 ;;  index           2   16[COMRAM] int 
  3425 ;; Return value:  Size  Location     Type
  3426 ;;                  1    wreg      void 
  3427 ;; Registers used:
  3428 ;;		wreg, status,2, status,0, tblptrl, tblptrh, tblptru, cstack
  3429 ;; Tracked objects:
  3430 ;;		On entry : 0/0
  3431 ;;		On exit  : 0/0
  3432 ;;		Unchanged: 0/0
  3433 ;; Data sizes:     COMRAM   BANK0   BANK1   BANK2   BANK3   BANK4   BANK5   BANK6   BANK7
  3434 ;;      Params:         4       0       0       0       0       0       0       0       0
  3435 ;;      Locals:         2       0       0       0       0       0       0       0       0
  3436 ;;      Temps:          2       0       0       0       0       0       0       0       0
  3437 ;;      Totals:         8       0       0       0       0       0       0       0       0
  3438 ;;Total ram usage:        8 bytes
  3439 ;; Hardware stack levels used:    1
  3440 ;; Hardware stack levels required when called:    3
  3441 ;; This function calls:
  3442 ;;		_Nokia5110_GotoXY
  3443 ;;		_Nokia5110_Write
  3444 ;; This function is called by:
  3445 ;;		_main
  3446 ;;		_Evolution1
  3447 ;;		_Evolution2
  3448 ;; This function uses a non-reentrant model
  3449 ;;
  3450                           
  3451                           	psect	text9
  3452  007442                     __ptext9:
  3453                           	opt stack 0
  3454  007442                     _Nokia5110_Bitmap:
  3455                           	opt stack 27
  3456                           
  3457                           ;Nokia5110.c: 121: Nokia5110_GotoXY(X, Y);
  3458                           
  3459                           ;incstack = 0
  3460  007442  C00E  F009         	movff	Nokia5110_Bitmap@Y,Nokia5110_GotoXY@Y
  3461  007446  500D               	movf	Nokia5110_Bitmap@X,w,c
  3462  007448  EC9E  F039         	call	_Nokia5110_GotoXY
  3463                           
  3464                           ;Nokia5110.c: 122: for (int index = 0 ; index < (84 * 48 / 8) ; index++)
  3465  00744C  0E00               	movlw	0
  3466  00744E  6E12               	movwf	Nokia5110_Bitmap@index+1,c
  3467  007450  0E00               	movlw	0
  3468  007452  6E11               	movwf	Nokia5110_Bitmap@index,c
  3469  007454                     l975:
  3470  007454  BE12               	btfsc	Nokia5110_Bitmap@index+1,7,c
  3471  007456  D006               	goto	l979
  3472  007458  0EF8               	movlw	248
  3473  00745A  5C11               	subwf	Nokia5110_Bitmap@index,w,c
  3474  00745C  0E01               	movlw	1
  3475  00745E  5812               	subwfb	Nokia5110_Bitmap@index+1,w,c
  3476  007460  B0D8               	btfsc	status,0,c
  3477  007462  0012               	return	
  3478  007464                     l979:
  3479                           
  3480                           ;Nokia5110.c: 123: Nokia5110_Write(1, MY_ARRAY[index]);
  3481  007464  5011               	movf	Nokia5110_Bitmap@index,w,c
  3482  007466  240B               	addwf	Nokia5110_Bitmap@MY_ARRAY,w,c
  3483  007468  6E0F               	movwf	??_Nokia5110_Bitmap& (0+255),c
  3484  00746A  5012               	movf	Nokia5110_Bitmap@index+1,w,c
  3485  00746C  200C               	addwfc	Nokia5110_Bitmap@MY_ARRAY+1,w,c
  3486  00746E  6E10               	movwf	(??_Nokia5110_Bitmap+1)& (0+255),c
  3487  007470  C00F  FFF6         	movff	??_Nokia5110_Bitmap,tblptrl
  3488  007474  C010  FFF7         	movff	??_Nokia5110_Bitmap+1,tblptrh
  3489  007478                     	if	0	;tblptru may be non-zero
  3490  007478                     	endif
  3491  007478                     	if	0	;tblptru may be non-zero
  3492  007478                     	endif
  3493  007478  0008               	tblrd		*
  3494  00747A  CFF5 F007          	movff	tablat,Nokia5110_Write@DATA
  3495  00747E  0E01               	movlw	1
  3496  007480  EC92  F039         	call	_Nokia5110_Write
  3497  007484  4A11               	infsnz	Nokia5110_Bitmap@index,f,c
  3498  007486  2A12               	incf	Nokia5110_Bitmap@index+1,f,c
  3499  007488  D7E5               	goto	l975
  3500  00748A                     __end_of_Nokia5110_Bitmap:
  3501                           	opt stack 0
  3502                           tblptru	equ	0xFF8
  3503                           tblptrh	equ	0xFF7
  3504                           tblptrl	equ	0xFF6
  3505                           tablat	equ	0xFF5
  3506                           prodh	equ	0xFF4
  3507                           prodl	equ	0xFF3
  3508                           wreg	equ	0xFE8
  3509                           status	equ	0xFD8
  3510                           
  3511 ;; *************** function _Nokia5110_GotoXY *****************
  3512 ;; Defined at:
  3513 ;;		line 74 in file "Nokia5110.c"
  3514 ;; Parameters:    Size  Location     Type
  3515 ;;  X               1    wreg     unsigned char 
  3516 ;;  Y               1    8[COMRAM] unsigned char 
  3517 ;; Auto vars:     Size  Location     Type
  3518 ;;  X               1    9[COMRAM] unsigned char 
  3519 ;; Return value:  Size  Location     Type
  3520 ;;                  1    wreg      void 
  3521 ;; Registers used:
  3522 ;;		wreg, status,2, status,0, cstack
  3523 ;; Tracked objects:
  3524 ;;		On entry : 0/0
  3525 ;;		On exit  : 0/0
  3526 ;;		Unchanged: 0/0
  3527 ;; Data sizes:     COMRAM   BANK0   BANK1   BANK2   BANK3   BANK4   BANK5   BANK6   BANK7
  3528 ;;      Params:         1       0       0       0       0       0       0       0       0
  3529 ;;      Locals:         1       0       0       0       0       0       0       0       0
  3530 ;;      Temps:          0       0       0       0       0       0       0       0       0
  3531 ;;      Totals:         2       0       0       0       0       0       0       0       0
  3532 ;;Total ram usage:        2 bytes
  3533 ;; Hardware stack levels used:    1
  3534 ;; Hardware stack levels required when called:    2
  3535 ;; This function calls:
  3536 ;;		_Nokia5110_Write
  3537 ;; This function is called by:
  3538 ;;		_Nokia5110_Clear
  3539 ;;		_Nokia5110_WriteString
  3540 ;;		_Nokia5110_Bitmap
  3541 ;;		_GiveFood
  3542 ;; This function uses a non-reentrant model
  3543 ;;
  3544                           
  3545                           	psect	text10
  3546  00733C                     __ptext10:
  3547                           	opt stack 0
  3548  00733C                     _Nokia5110_GotoXY:
  3549                           	opt stack 27
  3550                           
  3551                           ;incstack = 0
  3552                           ;Nokia5110_GotoXY@X stored from wreg
  3553  00733C  6E0A               	movwf	Nokia5110_GotoXY@X,c
  3554                           
  3555                           ;Nokia5110.c: 75: Nokia5110_Write(0, 0x80 | X);
  3556  00733E  500A               	movf	Nokia5110_GotoXY@X,w,c
  3557  007340  0980               	iorlw	128
  3558  007342  6E07               	movwf	Nokia5110_Write@DATA,c
  3559  007344  0E00               	movlw	0
  3560  007346  EC92  F039         	call	_Nokia5110_Write
  3561                           
  3562                           ;Nokia5110.c: 76: Nokia5110_Write(0, 0x40 | Y);
  3563  00734A  5009               	movf	Nokia5110_GotoXY@Y,w,c
  3564  00734C  0940               	iorlw	64
  3565  00734E  6E07               	movwf	Nokia5110_Write@DATA,c
  3566  007350  0E00               	movlw	0
  3567  007352  EC92  F039         	call	_Nokia5110_Write
  3568  007356  0012               	return		;funcret
  3569  007358                     __end_of_Nokia5110_GotoXY:
  3570                           	opt stack 0
  3571                           tblptru	equ	0xFF8
  3572                           tblptrh	equ	0xFF7
  3573                           tblptrl	equ	0xFF6
  3574                           tablat	equ	0xFF5
  3575                           prodh	equ	0xFF4
  3576                           prodl	equ	0xFF3
  3577                           wreg	equ	0xFE8
  3578                           status	equ	0xFD8
  3579                           
  3580 ;; *************** function _Nokia5110_Write *****************
  3581 ;; Defined at:
  3582 ;;		line 137 in file "Nokia5110.c"
  3583 ;; Parameters:    Size  Location     Type
  3584 ;;  MODE            1    wreg     unsigned char 
  3585 ;;  DATA            1    6[COMRAM] unsigned char 
  3586 ;; Auto vars:     Size  Location     Type
  3587 ;;  MODE            1    7[COMRAM] unsigned char 
  3588 ;; Return value:  Size  Location     Type
  3589 ;;                  1    wreg      void 
  3590 ;; Registers used:
  3591 ;;		wreg, status,2, status,0, cstack
  3592 ;; Tracked objects:
  3593 ;;		On entry : 0/0
  3594 ;;		On exit  : 0/0
  3595 ;;		Unchanged: 0/0
  3596 ;; Data sizes:     COMRAM   BANK0   BANK1   BANK2   BANK3   BANK4   BANK5   BANK6   BANK7
  3597 ;;      Params:         1       0       0       0       0       0       0       0       0
  3598 ;;      Locals:         1       0       0       0       0       0       0       0       0
  3599 ;;      Temps:          0       0       0       0       0       0       0       0       0
  3600 ;;      Totals:         2       0       0       0       0       0       0       0       0
  3601 ;;Total ram usage:        2 bytes
  3602 ;; Hardware stack levels used:    1
  3603 ;; Hardware stack levels required when called:    1
  3604 ;; This function calls:
  3605 ;;		_Nokia5110_WriteSPI
  3606 ;; This function is called by:
  3607 ;;		_Nokia5110_Init
  3608 ;;		_Nokia5110_Clear
  3609 ;;		_Nokia5110_GotoXY
  3610 ;;		_Nokia5110_WriteByte
  3611 ;;		_Nokia5110_Bitmap
  3612 ;; This function uses a non-reentrant model
  3613 ;;
  3614                           
  3615                           	psect	text11
  3616  007324                     __ptext11:
  3617                           	opt stack 0
  3618  007324                     _Nokia5110_Write:
  3619                           	opt stack 27
  3620                           
  3621                           ;incstack = 0
  3622                           ;Nokia5110_Write@MODE stored from wreg
  3623  007324  6E08               	movwf	Nokia5110_Write@MODE,c
  3624                           
  3625                           ;Nokia5110.c: 138: PORTBbits.RB2=MODE;
  3626  007326  B008               	btfsc	Nokia5110_Write@MODE,0,c
  3627  007328  D002               	bra	u185
  3628  00732A  9481               	bcf	3969,2,c	;volatile
  3629  00732C  D001               	bra	u186
  3630  00732E                     u185:
  3631  00732E  8481               	bsf	3969,2,c	;volatile
  3632  007330                     u186:
  3633                           
  3634                           ;Nokia5110.c: 140: PORTBbits.RB1=0;
  3635  007330  9281               	bcf	3969,1,c	;volatile
  3636                           
  3637                           ;Nokia5110.c: 141: Nokia5110_WriteSPI(DATA);
  3638  007332  5007               	movf	Nokia5110_Write@DATA,w,c
  3639  007334  ECAC  F039         	call	_Nokia5110_WriteSPI
  3640                           
  3641                           ;Nokia5110.c: 142: PORTBbits.RB1=1;
  3642  007338  8281               	bsf	3969,1,c	;volatile
  3643  00733A  0012               	return		;funcret
  3644  00733C                     __end_of_Nokia5110_Write:
  3645                           	opt stack 0
  3646                           tblptru	equ	0xFF8
  3647                           tblptrh	equ	0xFF7
  3648                           tblptrl	equ	0xFF6
  3649                           tablat	equ	0xFF5
  3650                           prodh	equ	0xFF4
  3651                           prodl	equ	0xFF3
  3652                           wreg	equ	0xFE8
  3653                           status	equ	0xFD8
  3654                           
  3655 ;; *************** function _Nokia5110_WriteSPI *****************
  3656 ;; Defined at:
  3657 ;;		line 154 in file "Nokia5110.c"
  3658 ;; Parameters:    Size  Location     Type
  3659 ;;  outputDATA      1    wreg     unsigned char 
  3660 ;; Auto vars:     Size  Location     Type
  3661 ;;  outputDATA      1    0[COMRAM] unsigned char 
  3662 ;;  BitCount        1    1[COMRAM] unsigned char 
  3663 ;; Return value:  Size  Location     Type
  3664 ;;                  1    wreg      void 
  3665 ;; Registers used:
  3666 ;;		wreg, status,2, status,0
  3667 ;; Tracked objects:
  3668 ;;		On entry : 0/0
  3669 ;;		On exit  : 0/0
  3670 ;;		Unchanged: 0/0
  3671 ;; Data sizes:     COMRAM   BANK0   BANK1   BANK2   BANK3   BANK4   BANK5   BANK6   BANK7
  3672 ;;      Params:         0       0       0       0       0       0       0       0       0
  3673 ;;      Locals:         2       0       0       0       0       0       0       0       0
  3674 ;;      Temps:          0       0       0       0       0       0       0       0       0
  3675 ;;      Totals:         2       0       0       0       0       0       0       0       0
  3676 ;;Total ram usage:        2 bytes
  3677 ;; Hardware stack levels used:    1
  3678 ;; This function calls:
  3679 ;;		Nothing
  3680 ;; This function is called by:
  3681 ;;		_Nokia5110_Write
  3682 ;; This function uses a non-reentrant model
  3683 ;;
  3684                           
  3685                           	psect	text12
  3686  007358                     __ptext12:
  3687                           	opt stack 0
  3688  007358                     _Nokia5110_WriteSPI:
  3689                           	opt stack 27
  3690                           
  3691                           ;incstack = 0
  3692                           ;Nokia5110_WriteSPI@outputDATA stored from wreg
  3693  007358  6E01               	movwf	Nokia5110_WriteSPI@outputDATA,c
  3694                           
  3695                           ;Nokia5110.c: 155: unsigned char BitCount;
  3696                           ;Nokia5110.c: 156: for (BitCount=0; BitCount<8; BitCount++){
  3697  00735A  0E00               	movlw	0
  3698  00735C  6E02               	movwf	Nokia5110_WriteSPI@BitCount,c
  3699  00735E                     l735:
  3700  00735E  0E07               	movlw	7
  3701  007360  6402               	cpfsgt	Nokia5110_WriteSPI@BitCount,c
  3702  007362  D001               	goto	l55
  3703  007364  0012               	return	
  3704  007366                     l55:
  3705                           
  3706                           ;Nokia5110.c: 157: PORTBbits.RB4=0;
  3707  007366  9881               	bcf	3969,4,c	;volatile
  3708                           
  3709                           ;Nokia5110.c: 158: if ((outputDATA&0x80)==0)
  3710  007368  BE01               	btfsc	Nokia5110_WriteSPI@outputDATA,7,c
  3711  00736A  D002               	goto	l57
  3712                           
  3713                           ;Nokia5110.c: 159: PORTBbits.RB3=0;
  3714  00736C  9681               	bcf	3969,3,c	;volatile
  3715  00736E  D001               	goto	l58
  3716  007370                     l57:
  3717                           
  3718                           ;Nokia5110.c: 160: else
  3719                           ;Nokia5110.c: 161: PORTBbits.RB3=1;
  3720  007370  8681               	bsf	3969,3,c	;volatile
  3721  007372                     l58:
  3722                           
  3723                           ;Nokia5110.c: 162: PORTBbits.RB4=1;
  3724  007372  8881               	bsf	3969,4,c	;volatile
  3725                           
  3726                           ;Nokia5110.c: 163: outputDATA=outputDATA<<1;
  3727  007374  5001               	movf	Nokia5110_WriteSPI@outputDATA,w,c
  3728  007376  2401               	addwf	Nokia5110_WriteSPI@outputDATA,w,c
  3729  007378  6E01               	movwf	Nokia5110_WriteSPI@outputDATA,c
  3730  00737A  2A02               	incf	Nokia5110_WriteSPI@BitCount,f,c
  3731  00737C  D7F0               	goto	l735
  3732  00737E                     __end_of_Nokia5110_WriteSPI:
  3733                           	opt stack 0
  3734                           tblptru	equ	0xFF8
  3735                           tblptrh	equ	0xFF7
  3736                           tblptrl	equ	0xFF6
  3737                           tablat	equ	0xFF5
  3738                           prodh	equ	0xFF4
  3739                           prodl	equ	0xFF3
  3740                           wreg	equ	0xFE8
  3741                           status	equ	0xFD8
  3742                           tblptru	equ	0xFF8
  3743                           tblptrh	equ	0xFF7
  3744                           tblptrl	equ	0xFF6
  3745                           tablat	equ	0xFF5
  3746                           prodh	equ	0xFF4
  3747                           prodl	equ	0xFF3
  3748                           wreg	equ	0xFE8
  3749                           status	equ	0xFD8
  3750                           
  3751                           	psect	rparam
  3752  0000                     tblptru	equ	0xFF8
  3753                           tblptrh	equ	0xFF7
  3754                           tblptrl	equ	0xFF6
  3755                           tablat	equ	0xFF5
  3756                           prodh	equ	0xFF4
  3757                           prodl	equ	0xFF3
  3758                           wreg	equ	0xFE8
  3759                           status	equ	0xFD8


Data Sizes:
    Strings     22
    Constant    2232
    Data        0
    BSS         1
    Persistent  0
    Stack       0

Auto Spaces:
    Space          Size  Autos    Used
    COMRAM           95     20      21
    BANK0           160      0       0
    BANK1           256      0       0
    BANK2           256      0       0
    BANK3           256      0       0
    BANK4           256      0       0
    BANK5           256      0       0
    BANK6           256      0       0
    BANK7           256      0       0

Pointer List with Targets:

    Nokia5110_Bitmap@MY_ARRAY	PTR unsigned char  size(2) Largest target is 504
		 -> Drifblim(CODE[504]), Drifloon(CODE[504]), Egg(CODE[504]), 

    Nokia5110_WriteString@DATA_STRING	PTR unsigned char  size(2) Largest target is 9
		 -> STR_3(CODE[9]), STR_2(CODE[9]), STR_1(CODE[4]), 


Critical Paths under _main in COMRAM

    _main->_Evolution1
    _main->_Evolution2
    _Nokia5110_Init->_Nokia5110_Write
    _Evolution2->_Nokia5110_Bitmap
    _Evolution1->_Nokia5110_Bitmap
    _Nokia5110_WriteString->_Nokia5110_WriteByte
    _Nokia5110_WriteByte->_Nokia5110_Write
    _Nokia5110_Clear->_Nokia5110_GotoXY
    _Nokia5110_Bitmap->_Nokia5110_GotoXY
    _Nokia5110_GotoXY->_Nokia5110_Write
    _Nokia5110_Write->___wmul

Critical Paths under _main in BANK0

    None.

Critical Paths under _main in BANK1

    None.

Critical Paths under _main in BANK2

    None.

Critical Paths under _main in BANK3

    None.

Critical Paths under _main in BANK4

    None.

Critical Paths under _main in BANK5

    None.

Critical Paths under _main in BANK6

    None.

Critical Paths under _main in BANK7

    None.

Call Graph Tables:

 ---------------------------------------------------------------------------------
 (Depth) Function   	        Calls       Base Space   Used Autos Params    Refs
 ---------------------------------------------------------------------------------
 (0) _main                                                 0     0      0   29876
                         _Evolution1
                         _Evolution2
                   _Nokia5110_Bitmap
                    _Nokia5110_Clear
                     _Nokia5110_Init
              _Nokia5110_WriteString
                           _delay_ms
 ---------------------------------------------------------------------------------
 (1) _Nokia5110_Init                                       0     0      0     936
                    _Nokia5110_Write
 ---------------------------------------------------------------------------------
 (1) _Evolution2                                           2     2      0    9662
                                             18 COMRAM     2     2      0
                   _Nokia5110_Bitmap
                    _Nokia5110_Clear
              _Nokia5110_WriteString
                           _delay_ms
 ---------------------------------------------------------------------------------
 (1) _Evolution1                                           2     2      0    9662
                                             18 COMRAM     2     2      0
                   _Nokia5110_Bitmap
                    _Nokia5110_Clear
              _Nokia5110_WriteString
                           _delay_ms
 ---------------------------------------------------------------------------------
 (1) _delay_ms                                             5     1      4     534
                                              0 COMRAM     5     1      4
 ---------------------------------------------------------------------------------
 (1) _Nokia5110_WriteString                                4     0      4    3214
                                             13 COMRAM     4     0      4
                   _Nokia5110_GotoXY
                _Nokia5110_WriteByte
 ---------------------------------------------------------------------------------
 (2) _Nokia5110_WriteByte                                  5     5      0    1313
                                              8 COMRAM     5     5      0
                    _Nokia5110_Write
                             ___wmul
 ---------------------------------------------------------------------------------
 (3) ___wmul                                               6     2      4     287
                                              0 COMRAM     6     2      4
 ---------------------------------------------------------------------------------
 (1) _Nokia5110_Clear                                      2     2      0    2218
                                             10 COMRAM     2     2      0
                   _Nokia5110_GotoXY
                    _Nokia5110_Write
 ---------------------------------------------------------------------------------
 (1) _Nokia5110_Bitmap                                     8     4      4    3650
                                             10 COMRAM     8     4      4
                   _Nokia5110_GotoXY
                    _Nokia5110_Write
 ---------------------------------------------------------------------------------
 (2) _Nokia5110_GotoXY                                     2     1      1    1236
                                              8 COMRAM     2     1      1
                    _Nokia5110_Write
 ---------------------------------------------------------------------------------
 (3) _Nokia5110_Write                                      2     1      1     936
                                              6 COMRAM     2     1      1
                 _Nokia5110_WriteSPI
                             ___wmul (ARG)
 ---------------------------------------------------------------------------------
 (4) _Nokia5110_WriteSPI                                   2     2      0      60
                                              0 COMRAM     2     2      0
 ---------------------------------------------------------------------------------
 Estimated maximum stack depth 4
 ---------------------------------------------------------------------------------

 Call Graph Graphs:

 _main (ROOT)
   _Evolution1
     _Nokia5110_Bitmap
       _Nokia5110_GotoXY
         _Nokia5110_Write
           _Nokia5110_WriteSPI
           ___wmul (ARG)
       _Nokia5110_Write
         _Nokia5110_WriteSPI
         ___wmul (ARG)
     _Nokia5110_Clear
       _Nokia5110_GotoXY
         _Nokia5110_Write
           _Nokia5110_WriteSPI
           ___wmul (ARG)
       _Nokia5110_Write
         _Nokia5110_WriteSPI
         ___wmul (ARG)
     _Nokia5110_WriteString
       _Nokia5110_GotoXY
         _Nokia5110_Write
           _Nokia5110_WriteSPI
           ___wmul (ARG)
       _Nokia5110_WriteByte
         _Nokia5110_Write
           _Nokia5110_WriteSPI
           ___wmul (ARG)
         ___wmul
     _delay_ms
   _Evolution2
     _Nokia5110_Bitmap
       _Nokia5110_GotoXY
         _Nokia5110_Write
           _Nokia5110_WriteSPI
           ___wmul (ARG)
       _Nokia5110_Write
         _Nokia5110_WriteSPI
         ___wmul (ARG)
     _Nokia5110_Clear
       _Nokia5110_GotoXY
         _Nokia5110_Write
           _Nokia5110_WriteSPI
           ___wmul (ARG)
       _Nokia5110_Write
         _Nokia5110_WriteSPI
         ___wmul (ARG)
     _Nokia5110_WriteString
       _Nokia5110_GotoXY
         _Nokia5110_Write
           _Nokia5110_WriteSPI
           ___wmul (ARG)
       _Nokia5110_WriteByte
         _Nokia5110_Write
           _Nokia5110_WriteSPI
           ___wmul (ARG)
         ___wmul
     _delay_ms
   _Nokia5110_Bitmap
     _Nokia5110_GotoXY
       _Nokia5110_Write
         _Nokia5110_WriteSPI
         ___wmul (ARG)
     _Nokia5110_Write
       _Nokia5110_WriteSPI
       ___wmul (ARG)
   _Nokia5110_Clear
     _Nokia5110_GotoXY
       _Nokia5110_Write
         _Nokia5110_WriteSPI
         ___wmul (ARG)
     _Nokia5110_Write
       _Nokia5110_WriteSPI
       ___wmul (ARG)
   _Nokia5110_Init
     _Nokia5110_Write
       _Nokia5110_WriteSPI
       ___wmul (ARG)
   _Nokia5110_WriteString
     _Nokia5110_GotoXY
       _Nokia5110_Write
         _Nokia5110_WriteSPI
         ___wmul (ARG)
     _Nokia5110_WriteByte
       _Nokia5110_Write
         _Nokia5110_WriteSPI
         ___wmul (ARG)
       ___wmul
   _delay_ms

 Address spaces:
Name               Size   Autos  Total    Cost      Usage
BIGRAM             7FF      0       0      21        0.0%
EEDATA             100      0       0       0        0.0%
BITBANK7           100      0       0      18        0.0%
BANK7              100      0       0      19        0.0%
BITBANK6           100      0       0      16        0.0%
BANK6              100      0       0      17        0.0%
BITBANK5           100      0       0      14        0.0%
BANK5              100      0       0      15        0.0%
BITBANK4           100      0       0      12        0.0%
BANK4              100      0       0      13        0.0%
BITBANK3           100      0       0      10        0.0%
BANK3              100      0       0      11        0.0%
BITBANK2           100      0       0       8        0.0%
BANK2              100      0       0       9        0.0%
BITBANK1           100      0       0       6        0.0%
BANK1              100      0       0       7        0.0%
BITBANK0            A0      0       0       4        0.0%
BANK0               A0      0       0       5        0.0%
BITCOMRAM           5F      0       0       0        0.0%
COMRAM              5F     14      15       1       22.1%
BITSFR               0      0       0      40        0.0%
SFR                  0      0       0      40        0.0%
STACK                0      0       0       2        0.0%
NULL                 0      0       0       0        0.0%
ABS                  0      0      15      20        0.0%
DATA                 0      0      15       3        0.0%
CODE                 0      0       0       0        0.0%


Microchip Technology PIC18 Macro Assembler V1.37 build -260352376 
Symbol Table                                                                                   Thu Nov 03 16:32:01 2016

                              l55 7366                                l57 7370  
                              l58 7372                       __CFG_BOR$ON 000000  
             ___wmul@multiplicand 0003                       __CFG_BORV$3 000000  
                    __CFG_CP0$OFF 000000                      __CFG_CP1$OFF 000000  
                             _ACC 0015                               l735 735E  
                             l941 756A                               l951 73AC  
                             l961 73CC                               l937 755A  
                             l955 73BC                               l947 75B4  
                             l965 73E4                               l975 7454  
                             l969 73F8                               l979 7464  
                             l987 740E                               l989 741E  
                             l999 75CC                      __CFG_CPB$OFF 000000  
                             u327 7414                               u185 732E  
                             u186 7330                               _Egg 7DF1  
                             wreg 000FE8          Nokia5110_WriteByte@index 000C  
                    __CFG_LVP$OFF 000000                      __CFG_WDT$OFF 000000  
                            l1003 75DC                              l1031 7694  
                            l1017 763A                              l1027 7684  
                            l1045 76F2                              l1059 74FA  
          Nokia5110_WriteString@X 0010            Nokia5110_WriteString@Y 0011  
                            STR_1 7FFB                              STR_2 7FF2  
                            STR_3 7FE9                 Nokia5110_Bitmap@X 000D  
               Nokia5110_Bitmap@Y 000E                              _main 74DA  
                            prodh 000FF4                              prodl 000FF3  
               Nokia5110_GotoXY@X 000A                 Nokia5110_GotoXY@Y 0009  
                            start 1000                     __CFG_IESO$OFF 000000  
                   __CFG_MCLRE$ON 000000                   __end_of_FoodPIX 7A01  
                    ___param_bank 000010                     __CFG_PLLDIV$5 000000  
         __end_of_Nokia5110_Clear 73D8                             ?_main 0001  
         __end_of_Nokia5110_Write 733C                     __CFG_USBDIV$2 000000  
                           _TRISB 000F93                     __CFG_PWRT$OFF 000000  
                   __CFG_WRT0$OFF 000000                     __CFG_WRT1$OFF 000000  
                  __CFG_EBTR0$OFF 000000                    __CFG_FCMEN$OFF 000000  
                  __CFG_EBTR1$OFF 000000                     __CFG_WRTB$OFF 000000  
                   __CFG_WRTC$OFF 000000                    __CFG_EBTRB$OFF 000000  
                           tablat 000FF5                             status 000FD8  
                 __initialization 7318                  __end_of_Drifblim 7BF9  
                    __end_of_main 7546                  __end_of_Drifloon 7DF1  
                          ??_main 0015       __size_of_Nokia5110_WriteSPI 0026  
                   __activetblptr 000002                        _Evolution1 75C0  
                      _Evolution2 7678          __end_of_Nokia5110_Bitmap 748A  
        __end_of_Nokia5110_GotoXY 7358                            _FONT_1 7731  
                          _TRISB0 007C98                            _TRISB1 007C99  
                          _TRISB2 007C9A                            _TRISB3 007C9B  
                          _TRISB4 007C9C             _Nokia5110_WriteString 73D8  
                  __CFG_VREGEN$ON 000000                  __end_of_delay_ms 7442  
                  __CFG_XINST$OFF 000000                            ___wmul 737E  
                  __CFG_STVREN$ON 000000                       Evolution1@i 0013  
                     Evolution2@i 0013                  ?_Nokia5110_Clear 0001  
                ?_Nokia5110_Write 0007                      __mediumconst 7730  
                          tblptrh 000FF7                            tblptrl 000FF6  
                          tblptru 000FF8                        __accesstop 0060  
         __end_of__initialization 731A                   __CFG_PBADEN$OFF 000000  
                   ___rparam_used 000001                    __pcstackCOMRAM 0001  
         __size_of_Nokia5110_Init 0050                       ?_Evolution1 0001  
                     ?_Evolution2 0001      __size_of_Nokia5110_WriteByte 007A  
            Nokia5110_Clear@index 000B            ?_Nokia5110_WriteString 000E  
                         ?___wmul 0001               Nokia5110_Write@DATA 0007  
                       ?_delay_ms 0001               Nokia5110_Write@MODE 0008  
                         _FoodPIX 7911                           __Hparam 0000  
             __size_of_Evolution1 00B8               __size_of_Evolution2 00B8  
                         __Lparam 0000                   __size_of___wmul 0026  
                         __pcinit 7318                           __ramtop 0800  
                         __ptext0 74DA                           __ptext1 748A  
                         __ptext2 7678                           __ptext3 75C0  
                         __ptext4 740C                           __ptext5 73D8  
                         __ptext6 7546                           __ptext7 737E  
                         __ptext8 73A4                           __ptext9 7442  
                      ??_delay_ms 0005                 ?_Nokia5110_Bitmap 000B  
               ?_Nokia5110_GotoXY 0009                ??_Nokia5110_Bitmap 000F  
            end_of_initialization 731A                ??_Nokia5110_GotoXY 000A  
                   __Lmediumconst 7730        __end_of_Nokia5110_WriteSPI 737E  
                  _Nokia5110_Init 748A                         _PORTBbits 000F81  
                  __end_of_FONT_1 7911            __end_of_Nokia5110_Init 74DA  
             _Nokia5110_WriteByte 7546                    __end_of___wmul 73A4  
                    ??_Evolution1 0013                      ??_Evolution2 0013  
             start_initialization 7318                       __end_of_Egg 7FE9  
        __size_of_Nokia5110_Clear 0034           ??_Nokia5110_WriteString 0012  
        __size_of_Nokia5110_Write 0018              ?_Nokia5110_WriteByte 0001  
              __end_of_Evolution1 7678                __end_of_Evolution2 7730  
                        ??___wmul 0005                   ?_Nokia5110_Init 0001  
                __CFG_LPT1OSC$OFF 000000          Nokia5110_Bitmap@MY_ARRAY 000B  
                     __pbssCOMRAM 0015             ??_Nokia5110_WriteByte 0009  
               __size_of_delay_ms 0036                     __pmediumconst 7730  
      Nokia5110_WriteSPI@BitCount 0002             Nokia5110_Bitmap@index 0011  
                  ___wmul@product 0005                 ??_Nokia5110_Clear 000B  
                       delay_ms@n 0001      Nokia5110_WriteByte@DATA_CHAR 000B  
               ??_Nokia5110_Write 0008         __size_of_Nokia5110_Bitmap 0048  
       __size_of_Nokia5110_GotoXY 001C                  __CFG_WDTPS$32768 000000  
               ___wmul@multiplier 0001                _Nokia5110_WriteSPI 7358  
                        _Drifblim 7A01                          _Drifloon 7BF9  
Nokia5110_WriteString@DATA_STRING 000E               ?_Nokia5110_WriteSPI 0001  
                        __Hrparam 0000                          __Lrparam 0000  
            ??_Nokia5110_WriteSPI 0001                          _delay_ms 740C  
                        __ptext10 733C                          __ptext11 7324  
                        __ptext12 7358    __size_of_Nokia5110_WriteString 0034  
   __end_of_Nokia5110_WriteString 740C                     __size_of_main 006C  
                ??_Nokia5110_Init 0009             __CFG_CPUDIV$OSC1_PLL2 000000  
                _Nokia5110_Bitmap 7442                  _Nokia5110_GotoXY 733C  
    Nokia5110_WriteSPI@outputDATA 0001       __end_of_Nokia5110_WriteByte 75C0  
                 _Nokia5110_Clear 73A4                   _Nokia5110_Write 7324  
              __CFG_FOSC$HSPLL_HS 000000  
